{
  "address": "0xdc36A12966805387c3cDF8eA4Cac6c4E5f1965b5",
  "abi": [
    {
      "anonymous": false,
      "inputs": [
        {
          "indexed": true,
          "internalType": "address",
          "name": "user",
          "type": "address"
        },
        {
          "indexed": true,
          "internalType": "uint256",
          "name": "index",
          "type": "uint256"
        },
        {
          "indexed": true,
          "internalType": "string",
          "name": "nickname",
          "type": "string"
        },
        {
          "indexed": false,
          "internalType": "enum Nation",
          "name": "nation",
          "type": "uint8"
        }
      ],
      "name": "OF_RegisterUser",
      "type": "event"
    },
    {
      "inputs": [
        {
          "internalType": "string",
          "name": "_contractName",
          "type": "string"
        }
      ],
      "name": "of_getContractAddress",
      "outputs": [
        {
          "internalType": "address",
          "name": "",
          "type": "address"
        }
      ],
      "stateMutability": "view",
      "type": "function"
    },
    {
      "inputs": [
        {
          "internalType": "enum Nation",
          "name": "_nation",
          "type": "uint8"
        }
      ],
      "name": "of_getNationInfo",
      "outputs": [
        {
          "components": [
            {
              "internalType": "string",
              "name": "nationName",
              "type": "string"
            },
            {
              "internalType": "string",
              "name": "nationCode",
              "type": "string"
            },
            {
              "internalType": "string",
              "name": "nationFlag",
              "type": "string"
            },
            {
              "internalType": "uint256",
              "name": "userCount",
              "type": "uint256"
            },
            {
              "internalType": "uint256[10]",
              "name": "_gap",
              "type": "uint256[10]"
            }
          ],
          "internalType": "struct NationInfo",
          "name": "",
          "type": "tuple"
        }
      ],
      "stateMutability": "view",
      "type": "function"
    },
    {
      "inputs": [],
      "name": "of_getOFStatus",
      "outputs": [
        {
          "components": [
            {
              "internalType": "uint256",
              "name": "teamReserve",
              "type": "uint256"
            },
            {
              "internalType": "uint256",
              "name": "communityReserve",
              "type": "uint256"
            },
            {
              "internalType": "uint256",
              "name": "distributionReserve",
              "type": "uint256"
            },
            {
              "internalType": "uint256",
              "name": "currentSupply",
              "type": "uint256"
            },
            {
              "internalType": "uint256",
              "name": "totalBurned",
              "type": "uint256"
            },
            {
              "internalType": "uint256",
              "name": "totalMaxSupply",
              "type": "uint256"
            },
            {
              "internalType": "uint256[10]",
              "name": "_gap",
              "type": "uint256[10]"
            }
          ],
          "internalType": "struct OFStatus",
          "name": "",
          "type": "tuple"
        }
      ],
      "stateMutability": "view",
      "type": "function"
    },
    {
      "inputs": [
        {
          "internalType": "uint256",
          "name": "_index",
          "type": "uint256"
        }
      ],
      "name": "of_getUserByIndex",
      "outputs": [
        {
          "components": [
            {
              "internalType": "string",
              "name": "nickname",
              "type": "string"
            },
            {
              "internalType": "uint256",
              "name": "userIndex",
              "type": "uint256"
            },
            {
              "internalType": "address",
              "name": "userAddress",
              "type": "address"
            },
            {
              "internalType": "enum Nation",
              "name": "nation",
              "type": "uint8"
            },
            {
              "internalType": "uint256",
              "name": "originNumber",
              "type": "uint256"
            },
            {
              "internalType": "uint256[9]",
              "name": "_gap",
              "type": "uint256[9]"
            }
          ],
          "internalType": "struct User",
          "name": "",
          "type": "tuple"
        }
      ],
      "stateMutability": "view",
      "type": "function"
    },
    {
      "inputs": [
        {
          "internalType": "string",
          "name": "_nickname",
          "type": "string"
        }
      ],
      "name": "of_getUserByNickname",
      "outputs": [
        {
          "components": [
            {
              "internalType": "string",
              "name": "nickname",
              "type": "string"
            },
            {
              "internalType": "uint256",
              "name": "userIndex",
              "type": "uint256"
            },
            {
              "internalType": "address",
              "name": "userAddress",
              "type": "address"
            },
            {
              "internalType": "enum Nation",
              "name": "nation",
              "type": "uint8"
            },
            {
              "internalType": "uint256",
              "name": "originNumber",
              "type": "uint256"
            },
            {
              "internalType": "uint256[9]",
              "name": "_gap",
              "type": "uint256[9]"
            }
          ],
          "internalType": "struct User",
          "name": "",
          "type": "tuple"
        }
      ],
      "stateMutability": "view",
      "type": "function"
    },
    {
      "inputs": [
        {
          "internalType": "address",
          "name": "_userAddress",
          "type": "address"
        }
      ],
      "name": "of_getUserInfo",
      "outputs": [
        {
          "components": [
            {
              "internalType": "string",
              "name": "nickname",
              "type": "string"
            },
            {
              "internalType": "uint256",
              "name": "userIndex",
              "type": "uint256"
            },
            {
              "internalType": "address",
              "name": "userAddress",
              "type": "address"
            },
            {
              "internalType": "enum Nation",
              "name": "nation",
              "type": "uint8"
            },
            {
              "internalType": "uint256",
              "name": "originNumber",
              "type": "uint256"
            },
            {
              "internalType": "uint256[9]",
              "name": "_gap",
              "type": "uint256[9]"
            }
          ],
          "internalType": "struct User",
          "name": "",
          "type": "tuple"
        }
      ],
      "stateMutability": "view",
      "type": "function"
    },
    {
      "inputs": [
        {
          "internalType": "address",
          "name": "_user",
          "type": "address"
        },
        {
          "internalType": "string",
          "name": "_nickname",
          "type": "string"
        },
        {
          "internalType": "enum Nation",
          "name": "_nation",
          "type": "uint8"
        }
      ],
      "name": "of_registerUser",
      "outputs": [],
      "stateMutability": "nonpayable",
      "type": "function"
    },
    {
      "inputs": [
        {
          "internalType": "string",
          "name": "serviceName",
          "type": "string"
        },
        {
          "internalType": "address",
          "name": "contractAddress",
          "type": "address"
        }
      ],
      "name": "of_setContractAddress",
      "outputs": [],
      "stateMutability": "nonpayable",
      "type": "function"
    }
  ],
  "transactionHash": "0x633524e35bcb1ca49fc8dd411e5471acd969ef7c1dc7f552a1989cb87337ceb0",
  "args": [],
  "numDeployments": 3,
  "solcInputHash": "8369df033f3ebba3e87d626c040efd96",
  "bytecode": "0x60808060405234601557610e8d908161001b8239f35b600080fdfe6080604052600436101561001257600080fd5b60003560e01c80635612592914610a3f57806359d3a9e6146106715780636312153b146105ac5780636676d8581461048f5780639063309f14610361578063a91e0be51461023a578063abe20ff3146100df5763ced70d621461007457600080fd5b346100da5760203660031901126100da5760043567ffffffffffffffff81116100da576001600160a01b036100c660206100b381943690600401610c73565b8160405193828580945193849201610b0d565b810160118152030190205416604051908152f35b600080fd5b346100da5760203660031901126100da5760043560c48110156100da576101446040519161010c83610c35565b60608352606060208401526060604084015260006060840152610140926080604051916101398684610c51565b853684370152610e3e565b906040519061015282610c35565b61015b83610d75565b825261016960018401610d75565b6020830190815261017c60028501610d75565b906040840191825260038501549260608501938452604051956004879101906000905b600a821061022457505050610220926101fb87936101c361020e946101e89a610c51565b6080880194855260405198899860208a52516101c060208b01526101e08a0190610b30565b9051888203601f190160408a0152610b30565b9051868203601f19016060880152610b30565b925160808501525160a0840190610cca565b0390f35b600160208192855481520193019101909161019f565b346100da5760203660031901126100da5760043567ffffffffffffffff81116100da5761029460206102786001600160a01b03933690600401610c73565b610280610cf2565b508160405193828580945193849201610b0d565b810160158152030190205416600052601360205260406000206040516102b981610bfd565b6102c282610d75565b81526001820154602082015260ff60028301546001600160a01b038116604084015260a01c1660c481101561034b57606082015260038201546080820152604051916004016000835b6009821061033557610220848661032461012082610c51565b60a082015260405191829182610b62565b600160208192855481520193019101909161030b565b634e487b7160e01b600052602160045260246000fd5b346100da5760403660031901126100da5760043567ffffffffffffffff81116100da57610392903690600401610c73565b602435906001600160a01b03821682036100da576001600160a01b037fc8fcad8db84d3cc18b4c41d551ea0ee66dd599cde068d998e57d5e09332c132054163303610425576103f860206001600160a01b03928160405193828580945193849201610b0d565b81016011815203019020911673ffffffffffffffffffffffffffffffffffffffff19825416179055600080f35b608460405162461bcd60e51b815260206004820152602260248201527f4c69624469616d6f6e643a204d75737420626520636f6e7472616374206f776e60448201527f65720000000000000000000000000000000000000000000000000000000000006064820152fd5b346100da5760003660031901126100da576040516104ac81610c19565b6000815260006020820152600060408201526000606082015260006080820152600060a08201526101409060c0604051916104e78484610c51565b8336843701526040516104f981610c19565b600054815260015460208201908152600254604083019081526003546060840190815260045491608085019283526005549360a0860194855260405196876006906000905b600a8210610596576102008a6105948d8c8c8c8c8c61055d8d87610c51565b60c08801958652604051975188525160208801525160408701525160608601525160808501525160a08401525160c0830190610cca565bf35b600160208192855481520193019101909161053e565b346100da5760203660031901126100da576001600160a01b036105cd610be7565b6105d5610cf2565b5016600052601360205260406000206040516105f081610bfd565b6105f982610d75565b81526001820154602082015260ff60028301546001600160a01b038116604084015260a01c1660c481101561034b57606082015260038201546080820152604051916004016000835b6009821061065b57610220848661032461012082610c51565b6001602081928554815201930191019091610642565b346100da5760603660031901126100da5761068a610be7565b60243567ffffffffffffffff81116100da576106aa903690600401610c73565b906044359060c48210156100da576001600160a01b0316918260005260136020526001600160a01b03600260406000200154166109fb57604051926001600160a01b038251946020818186019761070281838b610b0d565b8101601581520301902054166109b75761071d601054610e19565b601055806000526013602052604060002093825167ffffffffffffffff81116109a15761074a8654610d3b565b601f8111610959575b506020601f82116001146108ce577f6771583171ef983d11d040035c48b4b7cec6830be4d96f62e2444c22a172749992826020936108ac936000916108c3575b508160011b916000199060031b1c19161788555b6010546001890155600288018573ffffffffffffffffffffffffffffffffffffffff198254161781556003600099828b93547fffffffffffffffffffffff00ffffffffffffffffffffffffffffffffffffffff74ff00000000000000000000000000000000000000008d60a01b1691161790550155601054885260148352604088208573ffffffffffffffffffffffffffffffffffffffff1982541617905560405183818851610858818387610b0d565b810160158152030190208573ffffffffffffffffffffffffffffffffffffffff19825416179055600361088a88610e3e565b016108958154610e19565b905560105495604051928392839251928391610b0d565b8101039020946108bf6040518092610b55565ba480f35b90508701518a610793565b601f1982169087600052806000209160005b8181106109415750836108ac937f6771583171ef983d11d040035c48b4b7cec6830be4d96f62e2444c22a1727499969360209660019410610928575b5050811b0188556107a7565b89015160001960f88460031b161c191690558a8061091c565b9192602060018192868b0151815501940192016108e0565b866000526020600020601f830160051c81019160208410610997575b601f0160051c01905b81811061098b5750610753565b6000815560010161097e565b9091508190610975565b634e487b7160e01b600052604160045260246000fd5b606460405162461bcd60e51b815260206004820152601660248201527f4e69636b6e616d6520616c72656164792074616b656e000000000000000000006044820152fd5b606460405162461bcd60e51b815260206004820152601360248201527f5573657220616c726561647920657869737473000000000000000000000000006044820152fd5b346100da5760203660031901126100da57610a58610cf2565b5060043560005260146020526001600160a01b036040600020541660005260136020526040600020604051610a8c81610bfd565b610a9582610d75565b81526001820154602082015260ff60028301546001600160a01b038116604084015260a01c1660c481101561034b57606082015260038201546080820152604051916004016000835b60098210610af757610220848661032461012082610c51565b6001602081928554815201930191019091610ade565b60005b838110610b205750506000910152565b8181015183820152602001610b10565b90602091610b4981518092818552858086019101610b0d565b601f01601f1916010190565b9060c482101561034b5752565b6020815260c060a0610b8284516101c060208601526101e0850190610b30565b93602081015160408501526001600160a01b036040820151166060850152610bb260608201516080860190610b55565b608081015182850152015191016000905b60098210610bd15750505090565b6020806001928551815201930191019091610bc3565b600435906001600160a01b03821682036100da57565b60c0810190811067ffffffffffffffff8211176109a157604052565b60e0810190811067ffffffffffffffff8211176109a157604052565b60a0810190811067ffffffffffffffff8211176109a157604052565b90601f8019910116810190811067ffffffffffffffff8211176109a157604052565b81601f820112156100da5780359067ffffffffffffffff82116109a15760405192610ca8601f8401601f191660200185610c51565b828452602083830101116100da57816000926020809301838601378301015290565b906000905b600a8210610cdc57505050565b6020806001928551815201930191019091610ccf565b60405190610cff82610bfd565b81606081526000602082015260006040820152600060608201526000608082015260a06101209160405192610d348185610c51565b3684370152565b90600182811c92168015610d6b575b6020831014610d5557565b634e487b7160e01b600052602260045260246000fd5b91607f1691610d4a565b9060405191826000825492610d8984610d3b565b8084529360018116908115610df75750600114610db0575b50610dae92500383610c51565b565b90506000929192526020600020906000915b818310610ddb575050906020610dae9282010138610da1565b6020919350806001915483858901015201910190918492610dc2565b905060209250610dae94915060ff191682840152151560051b82010138610da1565b6000198114610e285760010190565b634e487b7160e01b600052601160045260246000fd5b60c481101561034b57600052601660205260406000209056fea26469706673582212201e7cc5391f95dc63bd240aa4e88a820f04bdf79d766ead9688c7695509fa8b4764736f6c634300081b0033",
  "devdoc": {
    "kind": "dev",
    "methods": {},
    "version": 1
  },
  "userdoc": {
    "kind": "user",
    "methods": {},
    "version": 1
  },
  "storageLayout": {
    "storage": [
      {
        "astId": 6790,
        "contract": "contracts/originForge/ofFacet.sol:ofFacet",
        "label": "s",
        "offset": 0,
        "slot": "0",
        "type": "t_struct(AppStorage)6582_storage"
      }
    ],
    "types": {
      "t_address": {
        "encoding": "inplace",
        "label": "address",
        "numberOfBytes": "20"
      },
      "t_array(t_uint256)10_storage": {
        "base": "t_uint256",
        "encoding": "inplace",
        "label": "uint256[10]",
        "numberOfBytes": "320"
      },
      "t_array(t_uint256)9_storage": {
        "base": "t_uint256",
        "encoding": "inplace",
        "label": "uint256[9]",
        "numberOfBytes": "288"
      },
      "t_enum(Nation)6780": {
        "encoding": "inplace",
        "label": "enum Nation",
        "numberOfBytes": "1"
      },
      "t_mapping(t_address,t_struct(User)6535_storage)": {
        "encoding": "mapping",
        "key": "t_address",
        "label": "mapping(address => struct User)",
        "numberOfBytes": "32",
        "value": "t_struct(User)6535_storage"
      },
      "t_mapping(t_enum(Nation)6780,t_struct(NationInfo)6548_storage)": {
        "encoding": "mapping",
        "key": "t_enum(Nation)6780",
        "label": "mapping(enum Nation => struct NationInfo)",
        "numberOfBytes": "32",
        "value": "t_struct(NationInfo)6548_storage"
      },
      "t_mapping(t_string_memory_ptr,t_address)": {
        "encoding": "mapping",
        "key": "t_string_memory_ptr",
        "label": "mapping(string => address)",
        "numberOfBytes": "32",
        "value": "t_address"
      },
      "t_mapping(t_string_memory_ptr,t_struct(Service)6519_storage)": {
        "encoding": "mapping",
        "key": "t_string_memory_ptr",
        "label": "mapping(string => struct Service)",
        "numberOfBytes": "32",
        "value": "t_struct(Service)6519_storage"
      },
      "t_mapping(t_uint256,t_address)": {
        "encoding": "mapping",
        "key": "t_uint256",
        "label": "mapping(uint256 => address)",
        "numberOfBytes": "32",
        "value": "t_address"
      },
      "t_string_memory_ptr": {
        "encoding": "bytes",
        "label": "string",
        "numberOfBytes": "32"
      },
      "t_string_storage": {
        "encoding": "bytes",
        "label": "string",
        "numberOfBytes": "32"
      },
      "t_struct(AppStorage)6582_storage": {
        "encoding": "inplace",
        "label": "struct AppStorage",
        "members": [
          {
            "astId": 6551,
            "contract": "contracts/originForge/ofFacet.sol:ofFacet",
            "label": "ofStatus",
            "offset": 0,
            "slot": "0",
            "type": "t_struct(OFStatus)6508_storage"
          },
          {
            "astId": 6553,
            "contract": "contracts/originForge/ofFacet.sol:ofFacet",
            "label": "userCount",
            "offset": 0,
            "slot": "16",
            "type": "t_uint256"
          },
          {
            "astId": 6557,
            "contract": "contracts/originForge/ofFacet.sol:ofFacet",
            "label": "contractAddresses",
            "offset": 0,
            "slot": "17",
            "type": "t_mapping(t_string_memory_ptr,t_address)"
          },
          {
            "astId": 6562,
            "contract": "contracts/originForge/ofFacet.sol:ofFacet",
            "label": "services",
            "offset": 0,
            "slot": "18",
            "type": "t_mapping(t_string_memory_ptr,t_struct(Service)6519_storage)"
          },
          {
            "astId": 6567,
            "contract": "contracts/originForge/ofFacet.sol:ofFacet",
            "label": "usersByAddress",
            "offset": 0,
            "slot": "19",
            "type": "t_mapping(t_address,t_struct(User)6535_storage)"
          },
          {
            "astId": 6571,
            "contract": "contracts/originForge/ofFacet.sol:ofFacet",
            "label": "usersByIndex",
            "offset": 0,
            "slot": "20",
            "type": "t_mapping(t_uint256,t_address)"
          },
          {
            "astId": 6575,
            "contract": "contracts/originForge/ofFacet.sol:ofFacet",
            "label": "usersByNickname",
            "offset": 0,
            "slot": "21",
            "type": "t_mapping(t_string_memory_ptr,t_address)"
          },
          {
            "astId": 6581,
            "contract": "contracts/originForge/ofFacet.sol:ofFacet",
            "label": "nations",
            "offset": 0,
            "slot": "22",
            "type": "t_mapping(t_enum(Nation)6780,t_struct(NationInfo)6548_storage)"
          }
        ],
        "numberOfBytes": "736"
      },
      "t_struct(NationInfo)6548_storage": {
        "encoding": "inplace",
        "label": "struct NationInfo",
        "members": [
          {
            "astId": 6537,
            "contract": "contracts/originForge/ofFacet.sol:ofFacet",
            "label": "nationName",
            "offset": 0,
            "slot": "0",
            "type": "t_string_storage"
          },
          {
            "astId": 6539,
            "contract": "contracts/originForge/ofFacet.sol:ofFacet",
            "label": "nationCode",
            "offset": 0,
            "slot": "1",
            "type": "t_string_storage"
          },
          {
            "astId": 6541,
            "contract": "contracts/originForge/ofFacet.sol:ofFacet",
            "label": "nationFlag",
            "offset": 0,
            "slot": "2",
            "type": "t_string_storage"
          },
          {
            "astId": 6543,
            "contract": "contracts/originForge/ofFacet.sol:ofFacet",
            "label": "userCount",
            "offset": 0,
            "slot": "3",
            "type": "t_uint256"
          },
          {
            "astId": 6547,
            "contract": "contracts/originForge/ofFacet.sol:ofFacet",
            "label": "_gap",
            "offset": 0,
            "slot": "4",
            "type": "t_array(t_uint256)10_storage"
          }
        ],
        "numberOfBytes": "448"
      },
      "t_struct(OFStatus)6508_storage": {
        "encoding": "inplace",
        "label": "struct OFStatus",
        "members": [
          {
            "astId": 6493,
            "contract": "contracts/originForge/ofFacet.sol:ofFacet",
            "label": "teamReserve",
            "offset": 0,
            "slot": "0",
            "type": "t_uint256"
          },
          {
            "astId": 6495,
            "contract": "contracts/originForge/ofFacet.sol:ofFacet",
            "label": "communityReserve",
            "offset": 0,
            "slot": "1",
            "type": "t_uint256"
          },
          {
            "astId": 6497,
            "contract": "contracts/originForge/ofFacet.sol:ofFacet",
            "label": "distributionReserve",
            "offset": 0,
            "slot": "2",
            "type": "t_uint256"
          },
          {
            "astId": 6499,
            "contract": "contracts/originForge/ofFacet.sol:ofFacet",
            "label": "currentSupply",
            "offset": 0,
            "slot": "3",
            "type": "t_uint256"
          },
          {
            "astId": 6501,
            "contract": "contracts/originForge/ofFacet.sol:ofFacet",
            "label": "totalBurned",
            "offset": 0,
            "slot": "4",
            "type": "t_uint256"
          },
          {
            "astId": 6503,
            "contract": "contracts/originForge/ofFacet.sol:ofFacet",
            "label": "totalMaxSupply",
            "offset": 0,
            "slot": "5",
            "type": "t_uint256"
          },
          {
            "astId": 6507,
            "contract": "contracts/originForge/ofFacet.sol:ofFacet",
            "label": "_gap",
            "offset": 0,
            "slot": "6",
            "type": "t_array(t_uint256)10_storage"
          }
        ],
        "numberOfBytes": "512"
      },
      "t_struct(Service)6519_storage": {
        "encoding": "inplace",
        "label": "struct Service",
        "members": [
          {
            "astId": 6510,
            "contract": "contracts/originForge/ofFacet.sol:ofFacet",
            "label": "serviceName",
            "offset": 0,
            "slot": "0",
            "type": "t_string_storage"
          },
          {
            "astId": 6512,
            "contract": "contracts/originForge/ofFacet.sol:ofFacet",
            "label": "mintAmount",
            "offset": 0,
            "slot": "1",
            "type": "t_uint256"
          },
          {
            "astId": 6514,
            "contract": "contracts/originForge/ofFacet.sol:ofFacet",
            "label": "burnAmount",
            "offset": 0,
            "slot": "2",
            "type": "t_uint256"
          },
          {
            "astId": 6518,
            "contract": "contracts/originForge/ofFacet.sol:ofFacet",
            "label": "_gap",
            "offset": 0,
            "slot": "3",
            "type": "t_array(t_uint256)10_storage"
          }
        ],
        "numberOfBytes": "416"
      },
      "t_struct(User)6535_storage": {
        "encoding": "inplace",
        "label": "struct User",
        "members": [
          {
            "astId": 6521,
            "contract": "contracts/originForge/ofFacet.sol:ofFacet",
            "label": "nickname",
            "offset": 0,
            "slot": "0",
            "type": "t_string_storage"
          },
          {
            "astId": 6523,
            "contract": "contracts/originForge/ofFacet.sol:ofFacet",
            "label": "userIndex",
            "offset": 0,
            "slot": "1",
            "type": "t_uint256"
          },
          {
            "astId": 6525,
            "contract": "contracts/originForge/ofFacet.sol:ofFacet",
            "label": "userAddress",
            "offset": 0,
            "slot": "2",
            "type": "t_address"
          },
          {
            "astId": 6528,
            "contract": "contracts/originForge/ofFacet.sol:ofFacet",
            "label": "nation",
            "offset": 20,
            "slot": "2",
            "type": "t_enum(Nation)6780"
          },
          {
            "astId": 6530,
            "contract": "contracts/originForge/ofFacet.sol:ofFacet",
            "label": "originNumber",
            "offset": 0,
            "slot": "3",
            "type": "t_uint256"
          },
          {
            "astId": 6534,
            "contract": "contracts/originForge/ofFacet.sol:ofFacet",
            "label": "_gap",
            "offset": 0,
            "slot": "4",
            "type": "t_array(t_uint256)9_storage"
          }
        ],
        "numberOfBytes": "416"
      },
      "t_uint256": {
        "encoding": "inplace",
        "label": "uint256",
        "numberOfBytes": "32"
      }
    }
  }
}