{
  "address": "0x46373c4D57F9133Eb474960130BC96A02b0cF3f0",
  "abi": [
    {
      "inputs": [],
      "name": "ReentrancyGuardReentrantCall",
      "type": "error"
    },
    {
      "inputs": [
        {
          "internalType": "address",
          "name": "token",
          "type": "address"
        }
      ],
      "name": "SafeERC20FailedOperation",
      "type": "error"
    },
    {
      "anonymous": false,
      "inputs": [
        {
          "indexed": true,
          "internalType": "address",
          "name": "user",
          "type": "address"
        },
        {
          "indexed": false,
          "internalType": "uint256",
          "name": "burnAmount",
          "type": "uint256"
        },
        {
          "indexed": false,
          "internalType": "uint256",
          "name": "tradeFeeAmount",
          "type": "uint256"
        },
        {
          "indexed": false,
          "internalType": "uint256",
          "name": "refundAmount",
          "type": "uint256"
        },
        {
          "indexed": false,
          "internalType": "uint256",
          "name": "timestamp",
          "type": "uint256"
        }
      ],
      "name": "BC_Burn",
      "type": "event"
    },
    {
      "anonymous": false,
      "inputs": [
        {
          "indexed": true,
          "internalType": "address",
          "name": "user",
          "type": "address"
        },
        {
          "indexed": false,
          "internalType": "uint256",
          "name": "inputAmount",
          "type": "uint256"
        },
        {
          "indexed": false,
          "internalType": "uint256",
          "name": "mintedAmount",
          "type": "uint256"
        },
        {
          "indexed": false,
          "internalType": "uint256",
          "name": "tradeFeeAmount",
          "type": "uint256"
        },
        {
          "indexed": false,
          "internalType": "uint256",
          "name": "timestamp",
          "type": "uint256"
        }
      ],
      "name": "BC_Mint",
      "type": "event"
    },
    {
      "inputs": [
        {
          "internalType": "uint256",
          "name": "_amount",
          "type": "uint256"
        },
        {
          "internalType": "uint256",
          "name": "_minRefundExpected",
          "type": "uint256"
        }
      ],
      "name": "bc_burn",
      "outputs": [
        {
          "internalType": "uint256",
          "name": "",
          "type": "uint256"
        }
      ],
      "stateMutability": "nonpayable",
      "type": "function"
    },
    {
      "inputs": [
        {
          "internalType": "uint256",
          "name": "_amount",
          "type": "uint256"
        }
      ],
      "name": "bc_estimate_burn_for_token",
      "outputs": [
        {
          "internalType": "uint256",
          "name": "",
          "type": "uint256"
        }
      ],
      "stateMutability": "view",
      "type": "function"
    },
    {
      "inputs": [
        {
          "internalType": "uint256",
          "name": "_amount",
          "type": "uint256"
        }
      ],
      "name": "bc_estimate_mint_for_token",
      "outputs": [
        {
          "internalType": "uint256",
          "name": "actualPaymentAmount",
          "type": "uint256"
        },
        {
          "internalType": "uint256",
          "name": "bondTokenAmount",
          "type": "uint256"
        },
        {
          "internalType": "uint256",
          "name": "feeAmount",
          "type": "uint256"
        }
      ],
      "stateMutability": "view",
      "type": "function"
    },
    {
      "inputs": [
        {
          "internalType": "uint256",
          "name": "_TRADES_PER_PAGE",
          "type": "uint256"
        }
      ],
      "name": "bc_get_total_pages",
      "outputs": [
        {
          "internalType": "uint256",
          "name": "",
          "type": "uint256"
        }
      ],
      "stateMutability": "view",
      "type": "function"
    },
    {
      "inputs": [
        {
          "internalType": "uint256",
          "name": "_page",
          "type": "uint256"
        },
        {
          "internalType": "uint256",
          "name": "_TRADES_PER_PAGE",
          "type": "uint256"
        }
      ],
      "name": "bc_get_trade_history_byPage",
      "outputs": [
        {
          "components": [
            {
              "internalType": "uint256",
              "name": "tradeId",
              "type": "uint256"
            },
            {
              "internalType": "bool",
              "name": "tradeType",
              "type": "bool"
            },
            {
              "internalType": "address",
              "name": "user",
              "type": "address"
            },
            {
              "internalType": "string",
              "name": "nickname",
              "type": "string"
            },
            {
              "internalType": "uint256",
              "name": "inputAmount",
              "type": "uint256"
            },
            {
              "internalType": "uint256",
              "name": "outputAmount",
              "type": "uint256"
            },
            {
              "internalType": "uint256",
              "name": "tradeTime",
              "type": "uint256"
            }
          ],
          "internalType": "struct ofTokenCurveFacet.Trade[]",
          "name": "trades",
          "type": "tuple[]"
        },
        {
          "internalType": "uint256",
          "name": "currentPage",
          "type": "uint256"
        },
        {
          "internalType": "uint256",
          "name": "totalPages",
          "type": "uint256"
        }
      ],
      "stateMutability": "view",
      "type": "function"
    },
    {
      "inputs": [],
      "name": "bc_mint",
      "outputs": [
        {
          "internalType": "uint256",
          "name": "",
          "type": "uint256"
        }
      ],
      "stateMutability": "payable",
      "type": "function"
    },
    {
      "inputs": [
        {
          "components": [
            {
              "internalType": "uint256",
              "name": "rangeTo",
              "type": "uint256"
            },
            {
              "internalType": "uint256",
              "name": "price",
              "type": "uint256"
            }
          ],
          "internalType": "struct ofTokenCurveFacet.BondStep[]",
          "name": "_bondSteps",
          "type": "tuple[]"
        }
      ],
      "name": "bc_set_steps",
      "outputs": [],
      "stateMutability": "nonpayable",
      "type": "function"
    },
    {
      "inputs": [
        {
          "internalType": "uint256",
          "name": "",
          "type": "uint256"
        }
      ],
      "name": "bondSteps",
      "outputs": [
        {
          "internalType": "uint256",
          "name": "rangeTo",
          "type": "uint256"
        },
        {
          "internalType": "uint256",
          "name": "price",
          "type": "uint256"
        }
      ],
      "stateMutability": "view",
      "type": "function"
    },
    {
      "inputs": [],
      "name": "getCurrentStep",
      "outputs": [
        {
          "internalType": "uint256",
          "name": "step",
          "type": "uint256"
        }
      ],
      "stateMutability": "view",
      "type": "function"
    },
    {
      "inputs": [],
      "name": "ofTokenCurveMaxSupply",
      "outputs": [
        {
          "internalType": "uint256",
          "name": "",
          "type": "uint256"
        }
      ],
      "stateMutability": "view",
      "type": "function"
    },
    {
      "inputs": [],
      "name": "ofTokenCurveSupply",
      "outputs": [
        {
          "internalType": "uint256",
          "name": "",
          "type": "uint256"
        }
      ],
      "stateMutability": "view",
      "type": "function"
    },
    {
      "inputs": [
        {
          "internalType": "uint256",
          "name": "_newFee",
          "type": "uint256"
        }
      ],
      "name": "setTradeFee",
      "outputs": [],
      "stateMutability": "nonpayable",
      "type": "function"
    },
    {
      "inputs": [],
      "name": "tradeCount",
      "outputs": [
        {
          "internalType": "uint256",
          "name": "",
          "type": "uint256"
        }
      ],
      "stateMutability": "view",
      "type": "function"
    },
    {
      "inputs": [],
      "name": "tradeFee",
      "outputs": [
        {
          "internalType": "uint256",
          "name": "",
          "type": "uint256"
        }
      ],
      "stateMutability": "view",
      "type": "function"
    },
    {
      "inputs": [
        {
          "internalType": "uint256",
          "name": "",
          "type": "uint256"
        }
      ],
      "name": "tradeHistory",
      "outputs": [
        {
          "internalType": "uint256",
          "name": "tradeId",
          "type": "uint256"
        },
        {
          "internalType": "bool",
          "name": "tradeType",
          "type": "bool"
        },
        {
          "internalType": "address",
          "name": "user",
          "type": "address"
        },
        {
          "internalType": "string",
          "name": "nickname",
          "type": "string"
        },
        {
          "internalType": "uint256",
          "name": "inputAmount",
          "type": "uint256"
        },
        {
          "internalType": "uint256",
          "name": "outputAmount",
          "type": "uint256"
        },
        {
          "internalType": "uint256",
          "name": "tradeTime",
          "type": "uint256"
        }
      ],
      "stateMutability": "view",
      "type": "function"
    }
  ],
  "transactionHash": "0x09fad86e9f8041c3e100537bc5fd556f8afcf2b65108dd217d3b1c67e795f5f6",
  "args": [],
  "numDeployments": 2,
  "solcInputHash": "dba5ad88cb78c0327ff907af4336c2cc",
  "bytecode": "0x60808060405234601f5760016017556064601d55611c0990816100258239f35b600080fdfe6080604052600436101561001257600080fd5b6000803560e01c806310603023146113475780631d3824ea1461132c57806324bcdfbd1461130e57806340f4657114610fd057806349ad6e1b14610f815780634e63413514610f635780635068bdfd14610f455780635b0c5dbd14610eb45780636affea7d146107f95780638a497c4c146107ba578063aae6e68a146105ae578063b52d6ce414610587578063bd55022a14610569578063cabf4e14146105375763dcdb3eb8146100c257600080fd5b80600319360112610534576100d5611ae9565b6100de346117ca565b9134106104f05780156104ac576001600160a01b0360246040516362616e6b60e01b8152601160048201522054168015610468578380808581945af161012261166f565b501561042457610134816018546115e9565b601855826001600160a01b0360276040516637b32a37b5b2b760c91b815260116007820152205416803b15610420576040517fcce7ec13000000000000000000000000000000000000000000000000000000008152336004820152602481018490529082908290604490829084905af18015610415576103fc575b50506101bc601a54611660565b9182601a5533845260136020526040842092604051906101db8261144e565b8082526020820194600186526101f760408401913383526114be565b9560608401968752608084019034825260a085019287845260c08601944286528a52601c60205260408a209551865560018601915115159074ffffffffffffffffffffffffffffffffffffffffff1960ff74ffffffffffffffffffffffffffffffffffffffff008554935160081b16931691161717905560028401965196875167ffffffffffffffff81116103e8576102908254611414565b601f81116103a3575b506020998a906001601f84111461033c579060059798999a83610331575b50508160011b916000199060031b1c19161790555b5160038501555160048401555191015560408051348152602081018490529081019190915242606082015233907faea3bb9633d70615c4a6a3a8422089870b4add2b56e87196cebc9cccea96ee1b9080608081015b0390a26001601755604051908152f35b0151905038806102b7565b9199601f198b16848452828420935b81811061038c575091600193918c60059a9b9c9d9410610373575b505050811b0190556102cc565b015160001960f88460031b161c19169055388080610366565b92938d60018192878601518155019501930161034b565b828b5260208b20601f830160051c810191602084106103de575b601f0160051c01905b8181106103d35750610299565b8b81556001016103c6565b90915081906103bd565b60248a634e487b7160e01b81526041600452fd5b816104069161149c565b6104115782386101af565b8280fd5b6040513d84823e3d90fd5b5080fd5b606460405162461bcd60e51b815260206004820152601a60248201527f4661696c656420746f2073656e642066656520746f2062616e6b0000000000006044820152fd5b606460405162461bcd60e51b815260206004820152601460248201527f496e76616c69642062616e6b20616464726573730000000000000000000000006044820152fd5b606460405162461bcd60e51b815260206004820152601560248201527f4e6f20626f6e6420746f6b656e73206d696e74656400000000000000000000006044820152fd5b606460405162461bcd60e51b815260206004820152601460248201527f496e73756666696369656e74207061796d656e740000000000000000000000006044820152fd5b80fd5b50346105345760203660031901126105345760606105566004356117ca565b9060405192835260208301526040820152f35b50346105345780600319360112610534576020601a54604051908152f35b50346105345760203660031901126105345760206105a66004356116af565b604051908152f35b50346105345760203660031901126105345760043567ffffffffffffffff81116104205736602382011215610420578060040135906105ec82611597565b906105fa604051928361149c565b82825260208201906024829460061b820101903682116107b657602401915b8183106107855750505061062b611a4c565b519068010000000000000000821161077157601b5482601b558083106106a0575b50601b83527f3ad8aa4f87544323a9d1e5dd902f40c356527a7955687113db5f9a85ad579dc183915b838310610680578480f35b600260208281600194518051875501518486015501920192019190610675565b7f7fffffffffffffffffffffffffffffffffffffffffffffffffffffffffffffff8116810361075d577f7fffffffffffffffffffffffffffffffffffffffffffffffffffffffffffffff8316830361075d5760011b7f3ad8aa4f87544323a9d1e5dd902f40c356527a7955687113db5f9a85ad579dc1018260011b7f3ad8aa4f87544323a9d1e5dd902f40c356527a7955687113db5f9a85ad579dc1015b81811061074b575061064c565b8085600292558560018201550161073e565b602484634e487b7160e01b81526011600452fd5b602483634e487b7160e01b81526041600452fd5b6040833603126107b6576020604091825161079f81611480565b853581528286013583820152815201920191610619565b8580fd5b50346105345760203660031901126105345760043590601b548210156105345760406107e583611562565b506001815491015482519182526020820152f35b503461053457610808366113b8565b9091610812611ae9565b8215610e70578260185410610e2c576001600160a01b0360276040516637b32a37b5b2b760c91b815260116007820152205416906001600160a01b0360246040516362616e6b60e01b81526011600482015220541682151580610e23575b15610ddf57612710610884601d5487611639565b0492610890848761160c565b9161089a836116af565b958615610d9b578610610d5757854710610d13576001600160a01b0360276040516637b32a37b5b2b760c91b815260116007820152205416803b15610d0f576040517f6c197ff5000000000000000000000000000000000000000000000000000000008152336004820152602481018990529085908290604490829084905af18015610d0457610cf0575b506109328760185461160c565b601855610940601a54611660565b80601a55338552601360205260408520906040519161095e8361144e565b8183526020830187815261097860408501923384526114be565b6060850190815260808501918c835260a08601938c855260c08701954287528b52601c60205260408b209651875560018701915115159074ffffffffffffffffffffffffffffffffffffffffff1960ff74ffffffffffffffffffffffffffffffffffffffff008554935160081b16931691161717905560028501905180519067ffffffffffffffff8211610cdc57908291610a198d99989796959454611414565b601f8111610c7e575b506020908c601f8411600114610be2579383610afe9894610b049b9894610b349f9e9d9b989460059892610bd7575b50508160011b916000199060031b1c19161790555b51600385015551600484015551910155610ac96040517f23b872dd0000000000000000000000000000000000000000000000000000000060208201523360248201523060448201528c606482015260648152610ac360848261149c565b86611b56565b60405163a9059cbb60e01b60208201526001600160a01b0391909116602482015260448082019390935291825260648261149c565b82611b56565b6040519163a9059cbb60e01b6020840152846024840152604483015260448252610b2f60648361149c565b611b56565b80808085335af1610b4361166f565b5015610b93576040805193845260208481019290925283018290524260608401529133907ffc316bb28fb4c19ce6efeb13ccffe4f9b738bc57296afa5976dc7895c3253f92908060808101610321565b606460405162461bcd60e51b815260206004820152601560248201527f4661696c656420746f2073656e6420726566756e6400000000000000000000006044820152fd5b015190503880610a51565b90601f9c9b9a99989796959493929c1983168483528d8320925b818110610c4a57508360059693610b349f610b049d9c9a9794610afe9c9a9760019510610c31575b505050811b019055610a66565b015160001960f88460031b161c19169055388080610c24565b939597999b9c9d9496989a5090916020600181928786015181550195019301908f9a98969492919d9c9b999795939d610bfc565b90919280949596979899508c5260208c20601f840160051c81019160208510610cd2575b90601f8f9b9a99989796959493920160051c01905b818110610cc45750610a22565b8d81558e9a50600101610cb7565b9091508190610ca2565b60248b634e487b7160e01b81526041600452fd5b84610cfd9195929561149c565b9238610925565b6040513d87823e3d90fd5b8480fd5b606460405162461bcd60e51b815260206004820152601d60248201527f496e73756666696369656e7420636f6e74726163742062616c616e63650000006044820152fd5b606460405162461bcd60e51b815260206004820152601560248201527f526566756e6420616d6f756e7420746f6f206c6f7700000000000000000000006044820152fd5b606460405162461bcd60e51b815260206004820152601060248201527f4e6f20726566756e6420616d6f756e74000000000000000000000000000000006044820152fd5b606460405162461bcd60e51b815260206004820152601160248201527f496e76616c6964206164647265737365730000000000000000000000000000006044820152fd5b50801515610870565b606460405162461bcd60e51b815260206004820152601360248201527f496e73756666696369656e7420737570706c79000000000000000000000000006044820152fd5b606460405162461bcd60e51b815260206004820152601d60248201527f416d6f756e74206d7573742062652067726561746572207468616e20300000006044820152fd5b5034610534576020366003190112610534576040906004358152601c602052208054600182015491610ee8600282016114be565b600382015491610f3160056004830154920154926001600160a01b03604051978897885260ff81161515602089015260081c16604087015260e0606087015260e08601906113d3565b92608085015260a084015260c08301520390f35b50346105345780600319360112610534576020601854604051908152f35b50346105345780600319360112610534576020601954604051908152f35b50346105345760203660031901126105345760043590610fa382601a546115e9565b600019810191908211610fbc5760206105a68484611619565b80634e487b7160e01b602492526011600452fd5b503461053457610fdf366113b8565b819291156112ca57601a5490610ff581836115e9565b600019810190811161075d578161100b91611619565b908185116112865760001985018581116112725761102c8261103392611639565b91826115e9565b600019810193908411611272576000198101908111938461125e57828183806110619410911802831861160c565b916001830180931161125e5761107683611597565b94611084604051968761149c565b838652601f1961109385611597565b01875b81811061121d575050865b848110611168575050505050604051926060840160608552835180915260808501602060808360051b880101950192905b8282106110ed57505050508293602084015260408301520390f35b90919294602080600192607f198a820301855288519081518152828201511515838201526001600160a01b03604083015116604082015260c080611140606085015160e0606086015260e08501906113d3565b936080810151608085015260a081015160a085015201519101529701920192019092916110d2565b81611209578061118361117d600193866115e9565b8661160c565b8952601c6020526040892060056040519161119d8361144e565b805483526001600160a01b038582015460ff81161515602086015260081c1660408401526111cd600282016114be565b606084015260038101546080840152600481015460a0840152015460c08201526111f7828a61164c565b52611202818961164c565b50016110a1565b602488634e487b7160e01b81526011600452fd5b60209060405161122c8161144e565b8a81528a838201528a60408201526060808201528a60808201528a60a08201528a60c082015282828b01015201611096565b602486634e487b7160e01b81526011600452fd5b602485634e487b7160e01b81526011600452fd5b606460405162461bcd60e51b815260206004820152601860248201527f50616765206578636565647320746f74616c20706167657300000000000000006044820152fd5b606460405162461bcd60e51b815260206004820152601b60248201527f50616765206d7573742062652067726561746572207468616e203000000000006044820152fd5b50346105345780600319360112610534576020601d54604051908152f35b503461053457806003193601126105345760206105a66115af565b503461053457602036600319011261053457600435611364611a4c565b61271081101561137457601d5580f35b606460405162461bcd60e51b815260206004820152600c60248201527f46656520746f6f206869676800000000000000000000000000000000000000006044820152fd5b60409060031901126113ce576004359060243590565b600080fd5b919082519283825260005b8481106113ff575050826000602080949584010152601f8019910116010190565b806020809284010151828286010152016113de565b90600182811c92168015611444575b602083101461142e57565b634e487b7160e01b600052602260045260246000fd5b91607f1691611423565b60e0810190811067ffffffffffffffff82111761146a57604052565b634e487b7160e01b600052604160045260246000fd5b6040810190811067ffffffffffffffff82111761146a57604052565b90601f8019910116810190811067ffffffffffffffff82111761146a57604052565b90604051918260008254926114d284611414565b808452936001811690811561154057506001146114f9575b506114f79250038361149c565b565b90506000929192526020600020906000915b8183106115245750509060206114f792820101386114ea565b602091935080600191548385890101520191019091849261150b565b9050602092506114f794915060ff191682840152151560051b820101386114ea565b601b5481101561158157601b60005260206000209060011b0190600090565b634e487b7160e01b600052603260045260246000fd5b67ffffffffffffffff811161146a5760051b60200190565b6000906000601b5490601854905b8281106115c957505050565b6115d281611562565b50548211156115e3576001016115bd565b93505050565b919082018092116115f657565b634e487b7160e01b600052601160045260246000fd5b919082039182116115f657565b8115611623570490565b634e487b7160e01b600052601260045260246000fd5b818102929181159184041417156115f657565b80518210156115815760209160051b010190565b60001981146115f65760010190565b3d156116aa573d9067ffffffffffffffff821161146a576040519161169e601f8201601f19166020018461149c565b82523d6000602084013e565b606090565b6018548082116117865760009190816116c66115af565b905b6116d3575b50505090565b90919260009082159182600014611755575061172661172c61173292865b8089101561174d5750879283915b670de0b6b3a764000061171f60016117168b611562565b50015485611639565b04906115e9565b9761160c565b9461160c565b906117485781156115f6579060001901826116c8565b6116cd565b9283916116ff565b600019840190848211610fbc575061172c6117329261178161177961172694611562565b50548861160c565b6116f1565b606460405162461bcd60e51b815260206004820152601560248201527f416d6f756e74206578636565647320737570706c7900000000000000000000006044820152fd5b600091601b54916117da83611597565b926117e8604051948561149c565b808452601b8552847f3ad8aa4f87544323a9d1e5dd902f40c356527a7955687113db5f9a85ad579dc1602086015b838310611a1f575050505060185493606482029082820460641483151715610fbc57908161185a93929695965050600161271060001983010401901515029061160c565b9283906000936118686115af565b95601954965b8351811015611a0e576020611883828661164c565b5101519661189c84611895848861164c565b515161160c565b9088156119e4576000670de0b6b3a7640000850290858204670de0b6b3a76400001486151715610fbc5750896118d191611b24565b828111156119f1575081156119e457816118ea916115e9565b926119116118f88a84611639565b6001670de0b6b3a7640000600019830104019015150290565b9080821161198f5761192d92916119279161160c565b946115e9565b96888089116119465750506001905b019591909561186e565b6119689550611976945061196e919250926119686118f89461197c999a61160c565b9061160c565b975087611639565b8261160c565b9061198a601d5480936115e9565b929190565b9550505050909550670de0b6b3a7640000829594950291808304670de0b6b3a764000014901517156115f6576119d56119ce61197c956119db94611b24565b80926115e9565b956115e9565b5060009061160c565b929397505060019061193c565b949950905061197c9697506119db94506119d592508391506115e9565b509291505061197c9293945061160c565b60026020600192604051611a3281611480565b855481528486015483820152815201920192019190611816565b6001600160a01b037fc8fcad8db84d3cc18b4c41d551ea0ee66dd599cde068d998e57d5e09332c132054163303611a7f57565b608460405162461bcd60e51b815260206004820152602260248201527f4c69624469616d6f6e643a204d75737420626520636f6e7472616374206f776e60448201527f65720000000000000000000000000000000000000000000000000000000000006064820152fd5b600260175414611afa576002601755565b7f3ee5aeb50000000000000000000000000000000000000000000000000000000060005260046000fd5b908015611b4357611b3b6001916000198401611619565b019015150290565b634e487b7160005260126020526024601cfd5b906000602091828151910182855af115611bc7576000513d611bbe57506001600160a01b0381163b155b611b875750565b6001600160a01b03907f5274afe7000000000000000000000000000000000000000000000000000000006000521660045260246000fd5b60011415611b80565b6040513d6000823e3d90fdfea26469706673582212209c8fea3d5f0a073ad562eee24232e73b32f27f29fc222604bf76745bcae0463d64736f6c634300081b0033",
  "devdoc": {
    "errors": {
      "ReentrancyGuardReentrantCall()": [
        {
          "details": "Unauthorized reentrant call."
        }
      ],
      "SafeERC20FailedOperation(address)": [
        {
          "details": "An operation with an ERC-20 token failed."
        }
      ]
    },
    "kind": "dev",
    "methods": {},
    "version": 1
  },
  "userdoc": {
    "kind": "user",
    "methods": {},
    "version": 1
  },
  "storageLayout": {
    "storage": [
      {
        "astId": 8278,
        "contract": "contracts/0_originForge/ofTokenCurveFacet.sol:ofTokenCurveFacet",
        "label": "s",
        "offset": 0,
        "slot": "0",
        "type": "t_struct(AppStorage)8070_storage"
      },
      {
        "astId": 948,
        "contract": "contracts/0_originForge/ofTokenCurveFacet.sol:ofTokenCurveFacet",
        "label": "_status",
        "offset": 0,
        "slot": "23",
        "type": "t_uint256"
      },
      {
        "astId": 4903,
        "contract": "contracts/0_originForge/ofTokenCurveFacet.sol:ofTokenCurveFacet",
        "label": "ofTokenCurveSupply",
        "offset": 0,
        "slot": "24",
        "type": "t_uint256"
      },
      {
        "astId": 4905,
        "contract": "contracts/0_originForge/ofTokenCurveFacet.sol:ofTokenCurveFacet",
        "label": "ofTokenCurveMaxSupply",
        "offset": 0,
        "slot": "25",
        "type": "t_uint256"
      },
      {
        "astId": 4927,
        "contract": "contracts/0_originForge/ofTokenCurveFacet.sol:ofTokenCurveFacet",
        "label": "tradeCount",
        "offset": 0,
        "slot": "26",
        "type": "t_uint256"
      },
      {
        "astId": 4931,
        "contract": "contracts/0_originForge/ofTokenCurveFacet.sol:ofTokenCurveFacet",
        "label": "bondSteps",
        "offset": 0,
        "slot": "27",
        "type": "t_array(t_struct(BondStep)4910_storage)dyn_storage"
      },
      {
        "astId": 4936,
        "contract": "contracts/0_originForge/ofTokenCurveFacet.sol:ofTokenCurveFacet",
        "label": "tradeHistory",
        "offset": 0,
        "slot": "28",
        "type": "t_mapping(t_uint256,t_struct(Trade)4925_storage)"
      },
      {
        "astId": 4963,
        "contract": "contracts/0_originForge/ofTokenCurveFacet.sol:ofTokenCurveFacet",
        "label": "tradeFee",
        "offset": 0,
        "slot": "29",
        "type": "t_uint256"
      }
    ],
    "types": {
      "t_address": {
        "encoding": "inplace",
        "label": "address",
        "numberOfBytes": "20"
      },
      "t_array(t_struct(BondStep)4910_storage)dyn_storage": {
        "base": "t_struct(BondStep)4910_storage",
        "encoding": "dynamic_array",
        "label": "struct ofTokenCurveFacet.BondStep[]",
        "numberOfBytes": "32"
      },
      "t_array(t_uint256)10_storage": {
        "base": "t_uint256",
        "encoding": "inplace",
        "label": "uint256[10]",
        "numberOfBytes": "320"
      },
      "t_array(t_uint256)9_storage": {
        "base": "t_uint256",
        "encoding": "inplace",
        "label": "uint256[9]",
        "numberOfBytes": "288"
      },
      "t_bool": {
        "encoding": "inplace",
        "label": "bool",
        "numberOfBytes": "1"
      },
      "t_enum(Nation)8268": {
        "encoding": "inplace",
        "label": "enum Nation",
        "numberOfBytes": "1"
      },
      "t_mapping(t_address,t_struct(User)8023_storage)": {
        "encoding": "mapping",
        "key": "t_address",
        "label": "mapping(address => struct User)",
        "numberOfBytes": "32",
        "value": "t_struct(User)8023_storage"
      },
      "t_mapping(t_enum(Nation)8268,t_struct(NationInfo)8036_storage)": {
        "encoding": "mapping",
        "key": "t_enum(Nation)8268",
        "label": "mapping(enum Nation => struct NationInfo)",
        "numberOfBytes": "32",
        "value": "t_struct(NationInfo)8036_storage"
      },
      "t_mapping(t_string_memory_ptr,t_address)": {
        "encoding": "mapping",
        "key": "t_string_memory_ptr",
        "label": "mapping(string => address)",
        "numberOfBytes": "32",
        "value": "t_address"
      },
      "t_mapping(t_string_memory_ptr,t_struct(Service)8007_storage)": {
        "encoding": "mapping",
        "key": "t_string_memory_ptr",
        "label": "mapping(string => struct Service)",
        "numberOfBytes": "32",
        "value": "t_struct(Service)8007_storage"
      },
      "t_mapping(t_uint256,t_address)": {
        "encoding": "mapping",
        "key": "t_uint256",
        "label": "mapping(uint256 => address)",
        "numberOfBytes": "32",
        "value": "t_address"
      },
      "t_mapping(t_uint256,t_struct(Trade)4925_storage)": {
        "encoding": "mapping",
        "key": "t_uint256",
        "label": "mapping(uint256 => struct ofTokenCurveFacet.Trade)",
        "numberOfBytes": "32",
        "value": "t_struct(Trade)4925_storage"
      },
      "t_string_memory_ptr": {
        "encoding": "bytes",
        "label": "string",
        "numberOfBytes": "32"
      },
      "t_string_storage": {
        "encoding": "bytes",
        "label": "string",
        "numberOfBytes": "32"
      },
      "t_struct(AppStorage)8070_storage": {
        "encoding": "inplace",
        "label": "struct AppStorage",
        "members": [
          {
            "astId": 8039,
            "contract": "contracts/0_originForge/ofTokenCurveFacet.sol:ofTokenCurveFacet",
            "label": "ofStatus",
            "offset": 0,
            "slot": "0",
            "type": "t_struct(OFStatus)7996_storage"
          },
          {
            "astId": 8041,
            "contract": "contracts/0_originForge/ofTokenCurveFacet.sol:ofTokenCurveFacet",
            "label": "userCount",
            "offset": 0,
            "slot": "16",
            "type": "t_uint256"
          },
          {
            "astId": 8045,
            "contract": "contracts/0_originForge/ofTokenCurveFacet.sol:ofTokenCurveFacet",
            "label": "contractAddresses",
            "offset": 0,
            "slot": "17",
            "type": "t_mapping(t_string_memory_ptr,t_address)"
          },
          {
            "astId": 8050,
            "contract": "contracts/0_originForge/ofTokenCurveFacet.sol:ofTokenCurveFacet",
            "label": "services",
            "offset": 0,
            "slot": "18",
            "type": "t_mapping(t_string_memory_ptr,t_struct(Service)8007_storage)"
          },
          {
            "astId": 8055,
            "contract": "contracts/0_originForge/ofTokenCurveFacet.sol:ofTokenCurveFacet",
            "label": "usersByAddress",
            "offset": 0,
            "slot": "19",
            "type": "t_mapping(t_address,t_struct(User)8023_storage)"
          },
          {
            "astId": 8059,
            "contract": "contracts/0_originForge/ofTokenCurveFacet.sol:ofTokenCurveFacet",
            "label": "usersByIndex",
            "offset": 0,
            "slot": "20",
            "type": "t_mapping(t_uint256,t_address)"
          },
          {
            "astId": 8063,
            "contract": "contracts/0_originForge/ofTokenCurveFacet.sol:ofTokenCurveFacet",
            "label": "usersByNickname",
            "offset": 0,
            "slot": "21",
            "type": "t_mapping(t_string_memory_ptr,t_address)"
          },
          {
            "astId": 8069,
            "contract": "contracts/0_originForge/ofTokenCurveFacet.sol:ofTokenCurveFacet",
            "label": "nations",
            "offset": 0,
            "slot": "22",
            "type": "t_mapping(t_enum(Nation)8268,t_struct(NationInfo)8036_storage)"
          }
        ],
        "numberOfBytes": "736"
      },
      "t_struct(BondStep)4910_storage": {
        "encoding": "inplace",
        "label": "struct ofTokenCurveFacet.BondStep",
        "members": [
          {
            "astId": 4907,
            "contract": "contracts/0_originForge/ofTokenCurveFacet.sol:ofTokenCurveFacet",
            "label": "rangeTo",
            "offset": 0,
            "slot": "0",
            "type": "t_uint256"
          },
          {
            "astId": 4909,
            "contract": "contracts/0_originForge/ofTokenCurveFacet.sol:ofTokenCurveFacet",
            "label": "price",
            "offset": 0,
            "slot": "1",
            "type": "t_uint256"
          }
        ],
        "numberOfBytes": "64"
      },
      "t_struct(NationInfo)8036_storage": {
        "encoding": "inplace",
        "label": "struct NationInfo",
        "members": [
          {
            "astId": 8025,
            "contract": "contracts/0_originForge/ofTokenCurveFacet.sol:ofTokenCurveFacet",
            "label": "nationName",
            "offset": 0,
            "slot": "0",
            "type": "t_string_storage"
          },
          {
            "astId": 8027,
            "contract": "contracts/0_originForge/ofTokenCurveFacet.sol:ofTokenCurveFacet",
            "label": "nationCode",
            "offset": 0,
            "slot": "1",
            "type": "t_string_storage"
          },
          {
            "astId": 8029,
            "contract": "contracts/0_originForge/ofTokenCurveFacet.sol:ofTokenCurveFacet",
            "label": "nationFlag",
            "offset": 0,
            "slot": "2",
            "type": "t_string_storage"
          },
          {
            "astId": 8031,
            "contract": "contracts/0_originForge/ofTokenCurveFacet.sol:ofTokenCurveFacet",
            "label": "userCount",
            "offset": 0,
            "slot": "3",
            "type": "t_uint256"
          },
          {
            "astId": 8035,
            "contract": "contracts/0_originForge/ofTokenCurveFacet.sol:ofTokenCurveFacet",
            "label": "_gap",
            "offset": 0,
            "slot": "4",
            "type": "t_array(t_uint256)10_storage"
          }
        ],
        "numberOfBytes": "448"
      },
      "t_struct(OFStatus)7996_storage": {
        "encoding": "inplace",
        "label": "struct OFStatus",
        "members": [
          {
            "astId": 7981,
            "contract": "contracts/0_originForge/ofTokenCurveFacet.sol:ofTokenCurveFacet",
            "label": "teamReserve",
            "offset": 0,
            "slot": "0",
            "type": "t_uint256"
          },
          {
            "astId": 7983,
            "contract": "contracts/0_originForge/ofTokenCurveFacet.sol:ofTokenCurveFacet",
            "label": "communityReserve",
            "offset": 0,
            "slot": "1",
            "type": "t_uint256"
          },
          {
            "astId": 7985,
            "contract": "contracts/0_originForge/ofTokenCurveFacet.sol:ofTokenCurveFacet",
            "label": "partnerReserve",
            "offset": 0,
            "slot": "2",
            "type": "t_uint256"
          },
          {
            "astId": 7987,
            "contract": "contracts/0_originForge/ofTokenCurveFacet.sol:ofTokenCurveFacet",
            "label": "distributionReserve",
            "offset": 0,
            "slot": "3",
            "type": "t_uint256"
          },
          {
            "astId": 7989,
            "contract": "contracts/0_originForge/ofTokenCurveFacet.sol:ofTokenCurveFacet",
            "label": "totalBurned",
            "offset": 0,
            "slot": "4",
            "type": "t_uint256"
          },
          {
            "astId": 7991,
            "contract": "contracts/0_originForge/ofTokenCurveFacet.sol:ofTokenCurveFacet",
            "label": "totalMaxSupply",
            "offset": 0,
            "slot": "5",
            "type": "t_uint256"
          },
          {
            "astId": 7995,
            "contract": "contracts/0_originForge/ofTokenCurveFacet.sol:ofTokenCurveFacet",
            "label": "_gap",
            "offset": 0,
            "slot": "6",
            "type": "t_array(t_uint256)10_storage"
          }
        ],
        "numberOfBytes": "512"
      },
      "t_struct(Service)8007_storage": {
        "encoding": "inplace",
        "label": "struct Service",
        "members": [
          {
            "astId": 7998,
            "contract": "contracts/0_originForge/ofTokenCurveFacet.sol:ofTokenCurveFacet",
            "label": "serviceName",
            "offset": 0,
            "slot": "0",
            "type": "t_string_storage"
          },
          {
            "astId": 8000,
            "contract": "contracts/0_originForge/ofTokenCurveFacet.sol:ofTokenCurveFacet",
            "label": "mintAmount",
            "offset": 0,
            "slot": "1",
            "type": "t_uint256"
          },
          {
            "astId": 8002,
            "contract": "contracts/0_originForge/ofTokenCurveFacet.sol:ofTokenCurveFacet",
            "label": "burnAmount",
            "offset": 0,
            "slot": "2",
            "type": "t_uint256"
          },
          {
            "astId": 8006,
            "contract": "contracts/0_originForge/ofTokenCurveFacet.sol:ofTokenCurveFacet",
            "label": "_gap",
            "offset": 0,
            "slot": "3",
            "type": "t_array(t_uint256)10_storage"
          }
        ],
        "numberOfBytes": "416"
      },
      "t_struct(Trade)4925_storage": {
        "encoding": "inplace",
        "label": "struct ofTokenCurveFacet.Trade",
        "members": [
          {
            "astId": 4912,
            "contract": "contracts/0_originForge/ofTokenCurveFacet.sol:ofTokenCurveFacet",
            "label": "tradeId",
            "offset": 0,
            "slot": "0",
            "type": "t_uint256"
          },
          {
            "astId": 4914,
            "contract": "contracts/0_originForge/ofTokenCurveFacet.sol:ofTokenCurveFacet",
            "label": "tradeType",
            "offset": 0,
            "slot": "1",
            "type": "t_bool"
          },
          {
            "astId": 4916,
            "contract": "contracts/0_originForge/ofTokenCurveFacet.sol:ofTokenCurveFacet",
            "label": "user",
            "offset": 1,
            "slot": "1",
            "type": "t_address"
          },
          {
            "astId": 4918,
            "contract": "contracts/0_originForge/ofTokenCurveFacet.sol:ofTokenCurveFacet",
            "label": "nickname",
            "offset": 0,
            "slot": "2",
            "type": "t_string_storage"
          },
          {
            "astId": 4920,
            "contract": "contracts/0_originForge/ofTokenCurveFacet.sol:ofTokenCurveFacet",
            "label": "inputAmount",
            "offset": 0,
            "slot": "3",
            "type": "t_uint256"
          },
          {
            "astId": 4922,
            "contract": "contracts/0_originForge/ofTokenCurveFacet.sol:ofTokenCurveFacet",
            "label": "outputAmount",
            "offset": 0,
            "slot": "4",
            "type": "t_uint256"
          },
          {
            "astId": 4924,
            "contract": "contracts/0_originForge/ofTokenCurveFacet.sol:ofTokenCurveFacet",
            "label": "tradeTime",
            "offset": 0,
            "slot": "5",
            "type": "t_uint256"
          }
        ],
        "numberOfBytes": "192"
      },
      "t_struct(User)8023_storage": {
        "encoding": "inplace",
        "label": "struct User",
        "members": [
          {
            "astId": 8009,
            "contract": "contracts/0_originForge/ofTokenCurveFacet.sol:ofTokenCurveFacet",
            "label": "nickname",
            "offset": 0,
            "slot": "0",
            "type": "t_string_storage"
          },
          {
            "astId": 8011,
            "contract": "contracts/0_originForge/ofTokenCurveFacet.sol:ofTokenCurveFacet",
            "label": "userIndex",
            "offset": 0,
            "slot": "1",
            "type": "t_uint256"
          },
          {
            "astId": 8013,
            "contract": "contracts/0_originForge/ofTokenCurveFacet.sol:ofTokenCurveFacet",
            "label": "userAddress",
            "offset": 0,
            "slot": "2",
            "type": "t_address"
          },
          {
            "astId": 8016,
            "contract": "contracts/0_originForge/ofTokenCurveFacet.sol:ofTokenCurveFacet",
            "label": "nation",
            "offset": 20,
            "slot": "2",
            "type": "t_enum(Nation)8268"
          },
          {
            "astId": 8018,
            "contract": "contracts/0_originForge/ofTokenCurveFacet.sol:ofTokenCurveFacet",
            "label": "originNumber",
            "offset": 0,
            "slot": "3",
            "type": "t_uint256"
          },
          {
            "astId": 8022,
            "contract": "contracts/0_originForge/ofTokenCurveFacet.sol:ofTokenCurveFacet",
            "label": "_gap",
            "offset": 0,
            "slot": "4",
            "type": "t_array(t_uint256)9_storage"
          }
        ],
        "numberOfBytes": "416"
      },
      "t_uint256": {
        "encoding": "inplace",
        "label": "uint256",
        "numberOfBytes": "32"
      }
    }
  }
}