{
  "address": "0xB53D808e9F5654C7A1Ed241ca60Ed1Da3386BAbb",
  "abi": [
    {
      "anonymous": false,
      "inputs": [
        {
          "indexed": true,
          "internalType": "string",
          "name": "userId",
          "type": "string"
        },
        {
          "indexed": true,
          "internalType": "string",
          "name": "userNickName",
          "type": "string"
        },
        {
          "indexed": false,
          "internalType": "address",
          "name": "userWallet",
          "type": "address"
        },
        {
          "indexed": false,
          "internalType": "address",
          "name": "delegateAccount",
          "type": "address"
        },
        {
          "indexed": true,
          "internalType": "uint256",
          "name": "userSBTId",
          "type": "uint256"
        }
      ],
      "name": "UserRegistered",
      "type": "event"
    },
    {
      "inputs": [
        {
          "internalType": "string",
          "name": "_contractName",
          "type": "string"
        },
        {
          "internalType": "address",
          "name": "_contractAddress",
          "type": "address"
        }
      ],
      "name": "admin_setContractAddress",
      "outputs": [],
      "stateMutability": "nonpayable",
      "type": "function"
    },
    {
      "inputs": [
        {
          "internalType": "string",
          "name": "_userId",
          "type": "string"
        },
        {
          "internalType": "string",
          "name": "_userNickName",
          "type": "string"
        },
        {
          "internalType": "address",
          "name": "_delegateAccount",
          "type": "address"
        }
      ],
      "name": "admin_setRegisterUser",
      "outputs": [],
      "stateMutability": "nonpayable",
      "type": "function"
    },
    {
      "inputs": [
        {
          "internalType": "string",
          "name": "_contractName",
          "type": "string"
        }
      ],
      "name": "getContractAddress",
      "outputs": [
        {
          "internalType": "address",
          "name": "",
          "type": "address"
        }
      ],
      "stateMutability": "view",
      "type": "function"
    },
    {
      "inputs": [
        {
          "internalType": "string",
          "name": "_userId",
          "type": "string"
        }
      ],
      "name": "get_User",
      "outputs": [
        {
          "components": [
            {
              "internalType": "string",
              "name": "userId",
              "type": "string"
            },
            {
              "internalType": "string",
              "name": "userNickName",
              "type": "string"
            },
            {
              "internalType": "address",
              "name": "userWallet",
              "type": "address"
            },
            {
              "internalType": "address",
              "name": "delegateAccount",
              "type": "address"
            },
            {
              "internalType": "uint256",
              "name": "userSBTId",
              "type": "uint256"
            },
            {
              "internalType": "uint256",
              "name": "originValue",
              "type": "uint256"
            }
          ],
          "internalType": "struct User",
          "name": "",
          "type": "tuple"
        }
      ],
      "stateMutability": "view",
      "type": "function"
    }
  ],
  "transactionHash": "0xbd6cdf3417de1cc9441a8d2d302cbd909fed401703b22df1af7aafecd7b5bf39",
  "args": [],
  "numDeployments": 17,
  "solcInputHash": "8c7a71dda93313ff9062f6657cce418f",
  "bytecode": "0x60808060405234601557610f76908161001b8239f35b600080fdfe6080604052600436101561001257600080fd5b6000803560e01c806304433bbc14610aec578063385e697b1461023b578063864bad711461019e57639e75566a1461004957600080fd5b3461019b57602036600319011261019b5760043567ffffffffffffffff8111610199576020610167926100b86100866100cd943690600401610ba8565b8260a060405161009581610b54565b606081526060878201528260408201528260608201528260808201520152610e75565b90508160405193828580945193849201610bff565b81016001815203019020604051906100e482610b54565b6100ed81610d34565b82526100fb60018201610d34565b602083019081526001600160a01b0360028301541691604084019283526001600160a01b0380600383015416606086019081528161017a600560048601549560808a0196875201549560a08901968752604051998a9960208b525160c060208c015260e08b0190610c22565b9051898203601f190160408b0152610c22565b9551166060870152511660808501525160a08401525160c08301520390f35b505b80fd5b503461019b57604036600319011261019b5760043567ffffffffffffffff8111610199576101d0903690600401610ba8565b602435906001600160a01b03821682036102375761020d60206001600160a01b03926101fa610dd8565b8160405193828580945193849201610bff565b810186815203019020911673ffffffffffffffffffffffffffffffffffffffff1982541617905580f35b8280fd5b503461019b57606036600319011261019b5760043567ffffffffffffffff81116101995761026d903690600401610ba8565b9060243567ffffffffffffffff81116101995761028e903690600401610ba8565b604435906001600160a01b038216809203610237576102ab610dd8565b826102b585610e75565b60206001600160a01b03602e6040517f6f726967696e56616c7565565246000000000000000000000000000000000000815285600e8201522054166004604051809581937fe0c862890000000000000000000000000000000000000000000000000000000083525af1918215610ae1578592610aad575b5084916001600160a01b036023604051621b999d60ea1b8152886003820152205416968051602a81149081610a6f575b50806109bd575b610838575b5060049060206001600160a01b036023604051621b999d60ea1b81528a60038201522054166040519384809263025307b160e51b82525afa91821561082d5787926107f5575b50604051916103bc83610b54565b838352602083018681526001600160a01b036040850196169586815260608501918983526080860193845260a08601948552604051602081816104058b83815193849201610bff565b81016001815203019020955180519067ffffffffffffffff821161071f578c82916104308a54610cda565b601f81116107a1575b50602091601f841160011461073e5792610733575b50508160011b916000199060031b1c19161786555b518051600187019167ffffffffffffffff821161071f576104848354610cda565b8d601f82116106d6575b9050506020908d601f84116001146106635792806001600160a01b03969360059a99989693889692610658575b50508160011b916000199060031b1c19161790555b51168260028801911673ffffffffffffffffffffffffffffffffffffffff1982541617905551166001600160a01b0360038601911673ffffffffffffffffffffffffffffffffffffffff1982541617905551600484015551910155853b15610654576040517fbfe6d7ef0000000000000000000000000000000000000000000000000000000081528581600481838b5af180156106335761063e575b506020600495966040519687809263025307b160e51b82525afa9485156106335786956105da575b507f9d9c1adc429c7392e6eab8718418df78f440ef4c99c7c2dd981535c134688f0b916105cb6105c5604093610d14565b94610d14565b9482519182526020820152a480f35b9094506020813d60201161062b575b816105f660209383610b86565b810103126106265751937f9d9c1adc429c7392e6eab8718418df78f440ef4c99c7c2dd981535c134688f0b610594565b600080fd5b3d91506105e9565b6040513d88823e3d90fd5b8561064d600497602093610b86565b955061056c565b8480fd5b0151905038806104bb565b9190601f198416858452828420935b8181106106be5750936001600160a01b03969360059a99989693600193838a98106106a5575b505050811b0190556104d0565b015160001960f88460031b161c19169055388080610698565b92936020600181928786015181550195019301610672565b80856020925220601f840160051c81019160208510610715575b601f0160051c01908e905b828110610708575061048e565b6001918155018e906106fb565b90915081906106f0565b60248d634e487b7160e01b81526041600452fd5b01519050388061044e565b8a81528281209350601f198516905b8181106107895750908460019594939210610770575b505050811b018655610463565b015160001960f88460031b161c19169055388080610763565b9293602060018192878601518155019501930161074d565b9160209193508a815220601f840160051c810191602085106107eb575b918f9291601f8695930160051c01905b8181106107db5750610439565b9283558493508f926001016107ce565b90915081906107be565b9091506020813d602011610825575b8161081160209383610b86565b81010312610821575190386103ae565b8680fd5b3d9150610804565b6040513d89823e3d90fd5b90925085906002905b602a821061085c5750506001600160a01b0316916004610368565b90916108688383610c47565b5160f81c906030821015806109b2575b156108c05761088690610c6e565b90602f190160ff81116108ac5760019160ff6108a3921690610cba565b925b0190610841565b602489634e487b7160e01b81526011600452fd5b6041821015806109a7575b156108fc576108d990610c6e565b906036190160ff81116108ac5760019160ff6108f6921690610cba565b926108a5565b60618210158061099c575b156109325761091590610c6e565b906056190160ff81116108ac5760019160ff6108f6921690610cba565b608460405162461bcd60e51b815260206004820152602360248201527f496e76616c69642063686172616374657220696e20616464726573732073747260448201527f696e6700000000000000000000000000000000000000000000000000000000006064820152fd5b506066821115610907565b5060468211156108cb565b506039821115610878565b50805160011015610a5b57602181017f78000000000000000000000000000000000000000000000000000000000000006001600160f81b031982511614908115610a08575b50610363565b9050815160011015610a4757516001600160f81b0319167f58000000000000000000000000000000000000000000000000000000000000001438610a02565b602488634e487b7160e01b81526032600452fd5b602487634e487b7160e01b81526032600452fd5b905015610a5b577f30000000000000000000000000000000000000000000000000000000000000006001600160f81b0319602083015116143861035c565b9091506020813d602011610ad9575b81610ac960209383610b86565b810103126106545751903861032c565b3d9150610abc565b6040513d87823e3d90fd5b503461019b57602036600319011261019b5760043567ffffffffffffffff811161019957610b4160208093610b2d6001600160a01b03943690600401610ba8565b908260405194838680955193849201610bff565b8201908152030190205416604051908152f35b60c0810190811067ffffffffffffffff821117610b7057604052565b634e487b7160e01b600052604160045260246000fd5b90601f8019910116810190811067ffffffffffffffff821117610b7057604052565b81601f820112156106265780359067ffffffffffffffff8211610b705760405192610bdd601f8401601f191660200185610b86565b8284526020838301011161062657816000926020809301838601378301015290565b60005b838110610c125750506000910152565b8181015183820152602001610c02565b90602091610c3b81518092818552858086019101610bff565b601f01601f1916010190565b908151811015610c58570160200190565b634e487b7160e01b600052603260045260246000fd5b9073fffffffffffffffffffffffffffffffffffffff06001600160a01b0383169260041b169180830460101490151715610ca457565b634e487b7160e01b600052601160045260246000fd5b906001600160a01b03809116911601906001600160a01b038211610ca457565b90600182811c92168015610d0a575b6020831014610cf457565b634e487b7160e01b600052602260045260246000fd5b91607f1691610ce9565b610d2c90602060405192828480945193849201610bff565b810103902090565b9060405191826000825492610d4884610cda565b8084529360018116908115610db65750600114610d6f575b50610d6d92500383610b86565b565b90506000929192526020600020906000915b818310610d9a575050906020610d6d9282010138610d60565b6020919350806001915483858901015201910190918492610d81565b905060209250610d6d94915060ff191682840152151560051b82010138610d60565b6001600160a01b037fc8fcad8db84d3cc18b4c41d551ea0ee66dd599cde068d998e57d5e09332c132054163303610e0b57565b608460405162461bcd60e51b815260206004820152602260248201527f4c69624469616d6f6e643a204d75737420626520636f6e7472616374206f776e60448201527f65720000000000000000000000000000000000000000000000000000000000006064820152fd5b60005b8151811015610eb55780610ea16001600160f81b0319610e9a60019486610c47565b5116610eb9565b60001a610eae8285610c47565b5301610e78565b5090565b6001600160f81b031981167f41000000000000000000000000000000000000000000000000000000000000008110159081610f15575b50610ef75790565b60f81c60200160ff8111610ca45760f81b6001600160f81b03191690565b7f5a000000000000000000000000000000000000000000000000000000000000009150111538610eef56fea264697066735822122036a774ac2126c173354ec61955de9fa76206e8ef10cfa5fde26a3eb9bbf9f4ed64736f6c634300081b0033",
  "devdoc": {
    "kind": "dev",
    "methods": {},
    "version": 1
  },
  "userdoc": {
    "kind": "user",
    "methods": {},
    "version": 1
  },
  "storageLayout": {
    "storage": [
      {
        "astId": 23992,
        "contract": "contracts/originForge/adminFacet.sol:adminFacet",
        "label": "s",
        "offset": 0,
        "slot": "0",
        "type": "t_struct(AppStorage)23982_storage"
      }
    ],
    "types": {
      "t_address": {
        "encoding": "inplace",
        "label": "address",
        "numberOfBytes": "20"
      },
      "t_array(t_string_storage)dyn_storage": {
        "base": "t_string_storage",
        "encoding": "dynamic_array",
        "label": "string[]",
        "numberOfBytes": "32"
      },
      "t_bool": {
        "encoding": "inplace",
        "label": "bool",
        "numberOfBytes": "1"
      },
      "t_mapping(t_string_memory_ptr,t_address)": {
        "encoding": "mapping",
        "key": "t_string_memory_ptr",
        "label": "mapping(string => address)",
        "numberOfBytes": "32",
        "value": "t_address"
      },
      "t_mapping(t_string_memory_ptr,t_bool)": {
        "encoding": "mapping",
        "key": "t_string_memory_ptr",
        "label": "mapping(string => bool)",
        "numberOfBytes": "32",
        "value": "t_bool"
      },
      "t_mapping(t_string_memory_ptr,t_struct(User)23946_storage)": {
        "encoding": "mapping",
        "key": "t_string_memory_ptr",
        "label": "mapping(string => struct User)",
        "numberOfBytes": "32",
        "value": "t_struct(User)23946_storage"
      },
      "t_mapping(t_uint256,t_struct(SBT)23963_storage)": {
        "encoding": "mapping",
        "key": "t_uint256",
        "label": "mapping(uint256 => struct SBT)",
        "numberOfBytes": "32",
        "value": "t_struct(SBT)23963_storage"
      },
      "t_string_memory_ptr": {
        "encoding": "bytes",
        "label": "string",
        "numberOfBytes": "32"
      },
      "t_string_storage": {
        "encoding": "bytes",
        "label": "string",
        "numberOfBytes": "32"
      },
      "t_struct(AppStorage)23982_storage": {
        "encoding": "inplace",
        "label": "struct AppStorage",
        "members": [
          {
            "astId": 23967,
            "contract": "contracts/originForge/adminFacet.sol:adminFacet",
            "label": "contractNames",
            "offset": 0,
            "slot": "0",
            "type": "t_mapping(t_string_memory_ptr,t_address)"
          },
          {
            "astId": 23972,
            "contract": "contracts/originForge/adminFacet.sol:adminFacet",
            "label": "users",
            "offset": 0,
            "slot": "1",
            "type": "t_mapping(t_string_memory_ptr,t_struct(User)23946_storage)"
          },
          {
            "astId": 23977,
            "contract": "contracts/originForge/adminFacet.sol:adminFacet",
            "label": "sbt",
            "offset": 0,
            "slot": "2",
            "type": "t_mapping(t_uint256,t_struct(SBT)23963_storage)"
          },
          {
            "astId": 23981,
            "contract": "contracts/originForge/adminFacet.sol:adminFacet",
            "label": "isUseNickName",
            "offset": 0,
            "slot": "3",
            "type": "t_mapping(t_string_memory_ptr,t_bool)"
          }
        ],
        "numberOfBytes": "128"
      },
      "t_struct(SBT)23963_storage": {
        "encoding": "inplace",
        "label": "struct SBT",
        "members": [
          {
            "astId": 23953,
            "contract": "contracts/originForge/adminFacet.sol:adminFacet",
            "label": "tokenId",
            "offset": 0,
            "slot": "0",
            "type": "t_uint256"
          },
          {
            "astId": 23955,
            "contract": "contracts/originForge/adminFacet.sol:adminFacet",
            "label": "image",
            "offset": 0,
            "slot": "1",
            "type": "t_string_storage"
          },
          {
            "astId": 23957,
            "contract": "contracts/originForge/adminFacet.sol:adminFacet",
            "label": "seed",
            "offset": 0,
            "slot": "2",
            "type": "t_string_storage"
          },
          {
            "astId": 23959,
            "contract": "contracts/originForge/adminFacet.sol:adminFacet",
            "label": "baseEgg",
            "offset": 0,
            "slot": "3",
            "type": "t_string_storage"
          },
          {
            "astId": 23962,
            "contract": "contracts/originForge/adminFacet.sol:adminFacet",
            "label": "colorSet",
            "offset": 0,
            "slot": "4",
            "type": "t_array(t_string_storage)dyn_storage"
          }
        ],
        "numberOfBytes": "160"
      },
      "t_struct(User)23946_storage": {
        "encoding": "inplace",
        "label": "struct User",
        "members": [
          {
            "astId": 23935,
            "contract": "contracts/originForge/adminFacet.sol:adminFacet",
            "label": "userId",
            "offset": 0,
            "slot": "0",
            "type": "t_string_storage"
          },
          {
            "astId": 23937,
            "contract": "contracts/originForge/adminFacet.sol:adminFacet",
            "label": "userNickName",
            "offset": 0,
            "slot": "1",
            "type": "t_string_storage"
          },
          {
            "astId": 23939,
            "contract": "contracts/originForge/adminFacet.sol:adminFacet",
            "label": "userWallet",
            "offset": 0,
            "slot": "2",
            "type": "t_address"
          },
          {
            "astId": 23941,
            "contract": "contracts/originForge/adminFacet.sol:adminFacet",
            "label": "delegateAccount",
            "offset": 0,
            "slot": "3",
            "type": "t_address"
          },
          {
            "astId": 23943,
            "contract": "contracts/originForge/adminFacet.sol:adminFacet",
            "label": "userSBTId",
            "offset": 0,
            "slot": "4",
            "type": "t_uint256"
          },
          {
            "astId": 23945,
            "contract": "contracts/originForge/adminFacet.sol:adminFacet",
            "label": "originValue",
            "offset": 0,
            "slot": "5",
            "type": "t_uint256"
          }
        ],
        "numberOfBytes": "192"
      },
      "t_uint256": {
        "encoding": "inplace",
        "label": "uint256",
        "numberOfBytes": "32"
      }
    }
  }
}