{
  "address": "0xE10af8B6acb176aBA7D0b48Ec7FBFAE91F65Dda0",
  "abi": [
    {
      "inputs": [
        {
          "internalType": "uint256",
          "name": "_tokenId",
          "type": "uint256"
        }
      ],
      "name": "_generateSVG",
      "outputs": [
        {
          "internalType": "string",
          "name": "",
          "type": "string"
        }
      ],
      "stateMutability": "view",
      "type": "function"
    },
    {
      "inputs": [
        {
          "internalType": "uint256",
          "name": "_tokenId",
          "type": "uint256"
        }
      ],
      "name": "nft_getUri",
      "outputs": [
        {
          "internalType": "string",
          "name": "",
          "type": "string"
        }
      ],
      "stateMutability": "view",
      "type": "function"
    },
    {
      "inputs": [
        {
          "internalType": "uint256",
          "name": "_tokenId",
          "type": "uint256"
        },
        {
          "internalType": "string",
          "name": "_image",
          "type": "string"
        },
        {
          "internalType": "string",
          "name": "_seed",
          "type": "string"
        },
        {
          "internalType": "string",
          "name": "_baseEgg",
          "type": "string"
        },
        {
          "internalType": "string[]",
          "name": "_colorSet",
          "type": "string[]"
        }
      ],
      "name": "setSBT",
      "outputs": [],
      "stateMutability": "nonpayable",
      "type": "function"
    }
  ],
  "transactionHash": "0xaadaa5448aa87c4c018e4220d061e95788d6aa132a56439207182162c8bdc8ca",
  "args": [],
  "numDeployments": 23,
  "solcInputHash": "90116e3607cc163ce1ef878d214d8a25",
  "bytecode": "0x60808060405234601557611861908161001b8239f35b600080fdfe6080604052600436101561001257600080fd5b60003560e01c80631d9f62a014610a62578063906ef652146100715763a0154fa21461003d57600080fd5b3461006c57602036600319011261006c5761006861005c600435611353565b60405191829182611139565b0390f35b600080fd5b3461006c57602036600319011261006c5760043580600052600260205260026040600020016100e16040916100db8351916100ac8584611085565b600483527f736565640000000000000000000000000000000000000000000000000000000060208401526112af565b9061148b565b9082600052600260205261024b600382600020016101348351916101058584611085565b600783527f626173654567670000000000000000000000000000000000000000000000000060208401526112af565b906102006101b861017c600093875161014d8982611085565b600a81527f74726169745f7479706500000000000000000000000000000000000000000000602082015261136e565b9386516101898882611085565b600581527f76616c7565000000000000000000000000000000000000000000000000000000602082015261136e565b916101c360016114ec565b905085516101d18782611085565b600c81527f646973706c61795f747970650000000000000000000000000000000000000000602082015261136e565b906102096111d9565b926102138461125e565b5261021d8361125e565b506102278361126b565b526102318261126b565b5061023b8261127b565b526102458161127b565b50611403565b815192606061025a8186611085565b60028552601f190160005b818110610a515750506102778461125e565b526102818361125e565b5061028b8361126b565b526102958261126b565b508260005260026020526102af6004826000200154611214565b9260005b8160005260026020526004836000200154811015610366578160005260026020526004836000200190815481101561035057600191600052610334816020600020016100db8651916103058884611085565b600883527f636f6c6f7253657400000000000000000000000000000000000000000000000060208401526112af565b61033e828861129b565b52610349818761129b565b50016102b3565b634e487b7160e01b600052603260045260246000fd5b5091909161037f61037a83518651906111b6565b611214565b9360005b83518110156103b657806103996001928661129b565b516103a4828961129b565b526103af818861129b565b5001610383565b50909260005b82518110156103fa57806103f36103d56001938661129b565b516103e18388516111b6565b906103ec828b61129b565b528861129b565b50016103bc565b8582868151608081019060a08101845260008252600a83925b600019019260308282060184530491821561043057600a90610413565b6107069250610497602a6104d29361048693608081601f198101930301825288519485927f5465737420534254202300000000000000000000000000000000000000000000602085015251809285850190611116565b81010301601f198101835282611085565b84516104a38682611085565b600481527f6e616d6500000000000000000000000000000000000000000000000000000000602082015261136e565b9361071760026105f26105e36105a86105a289516104f08b82611085565b600b81527f6465736372697074696f6e00000000000000000000000000000000000000000060208201528a5190610528608083611085565b604882527f746865205465737420534254206973206120756e69717565205342542074686160208301527f7420726570726573656e74732061207573657220696e20746865204f726967698c8301527f6e20466f7267652e000000000000000000000000000000000000000000000000606083015261136e565b97611353565b88516105b48a82611085565b600581527f696d616765000000000000000000000000000000000000000000000000000000602082015261136e565b936105ec6114cd565b90611783565b60218751916106706001838560208101947f5b0000000000000000000000000000000000000000000000000000000000000086526106398151809260208686019101611116565b81017f5d00000000000000000000000000000000000000000000000000000000000000838201520301601e19810186520184611085565b6106ae895161067f8b82611085565b600a81527f617474726962757465730000000000000000000000000000000000000000000060208201526116a0565b928951978894601160f91b60208701526106d1815180926020888a019101611116565b8501917f223a000000000000000000000000000000000000000000000000000000000000858401525180936023840190611116565b01010301601f198101845283611085565b83519260a06107268186611085565b60048552601f190160005b818110610a2a57505061078e94956107488561125e565b526107528461125e565b5061075c8461126b565b526107668361126b565b506107708361127b565b5261077a8261127b565b506107848261128b565b526102458161128b565b80516060918161091d575b5050610068916108fa61089a9260018351916107b58584611085565b600683526025602084017f626173653634000000000000000000000000000000000000000000000000000081528651946107ef8887611085565b6010865260208601917f6170706c69636174696f6e2f6a736f6e00000000000000000000000000000000835281511515600090600014610904575085602061084693610861938c5195869251809285850190611116565b8101600b60fa1b838201520301601e19810184520182611085565b905b87519889967f646174613a000000000000000000000000000000000000000000000000000000602089015251809285890190611116565b85017f3b00000000000000000000000000000000000000000000000000000000000000838201526108d5825180936020602685019101611116565b01016108ea8251809360208685019101611116565b010103601f198101845283611085565b5191829182611139565b915050875190610915602083611085565b815290610863565b9150916003600284010460021b9281517f4142434445464748494a4b4c4d4e4f505152535455565758595a616263646566601f526106707f6768696a6b6c6d6e6f707172737475767778797a303132333435363738392d5f18603f52602081019480820195602087016020858801019160046003845199600086525b0191603f8351818160121c16516000538181600c1c1651600153818160061c1651600253165160035360005181520190828210156109dc57600490600390610999565b5090507f3d3d00000000000000000000000000000000000000000000000000000000000060036108fa96886100689b61089a9b60009752018952066002048203525281529250819350610799565b806060602080938901015201610731565b634e487b7160e01b600052604160045260246000fd5b806060602080938901015201610265565b3461006c5760a036600319011261006c5760043560243567ffffffffffffffff811161006c57610a969036906004016110a7565b60443567ffffffffffffffff811161006c57610ab69036906004016110a7565b9160643567ffffffffffffffff811161006c57610ad79036906004016110a7565b6084359367ffffffffffffffff851161006c573660238601121561006c57846004013593610b04856110fe565b95610b126040519788611085565b85875260208701906024829760051b8201019036821161006c5760248101925b828410611055575050505083600052600260205260016040600020019080519067ffffffffffffffff8211610a3b57610b6b8354611165565b601f8111611023575b50602090601f8311600114610fbc57610ba6929160009183610fb1575b50508160011b916000199060031b1c19161790565b90555b82600052600260205260026040600020019080519067ffffffffffffffff8211610a3b57610bd78354611165565b601f8111610f7f575b50602090601f8311600114610f1857610c11929160009183610f0d5750508160011b916000199060031b1c19161790565b90555b81600052600260205260036040600020019080519067ffffffffffffffff8211610a3b57610c428354611165565b601f8111610edb575b50602090601f8311600114610e7457610c7c929160009183610e695750508160011b916000199060031b1c19161790565b90555b60005260026020526004604060002001915190680100000000000000008211610a3b578254828455808310610deb575b50916000526020600020916000905b828210610cc757005b805180519067ffffffffffffffff8211610a3b57610ce58654611165565b601f8111610dae575b50602090601f8311600114610d415792610d2783600195946020948796600092610d365750508160011b916000199060031b1c19161790565b87555b01940191019092610cbe565b015190508a80610b91565b90601f1983169187600052816000209260005b818110610d965750936020936001969387969383889510610d7d575b505050811b018755610d2a565b015160001960f88460031b161c19169055898080610d70565b92936020600181928786015181550195019301610d54565b610ddb90876000526020600020601f850160051c81019160208610610de1575b601f0160051c019061119f565b86610cee565b9091508190610dce565b8360005282602060002091820191015b818110610e085750610caf565b80610e1560019254611165565b80610e22575b5001610dfb565b601f81118314610e385750600081555b86610e1b565b610e56908260005283601f6020600020920160051c8201910161119f565b8060005260006020812081835555610e32565b015190508780610b91565b90601f1983169184600052816000209260005b818110610ec35750908460019594939210610eaa575b505050811b019055610c7f565b015160001960f88460031b161c19169055868080610e9d565b92936020600181928786015181550195019301610e87565b610f0790846000526020600020601f850160051c81019160208610610de157601f0160051c019061119f565b86610c4b565b015190508880610b91565b90601f1983169184600052816000209260005b818110610f675750908460019594939210610f4e575b505050811b019055610c14565b015160001960f88460031b161c19169055878080610f41565b92936020600181928786015181550195019301610f2b565b610fab90846000526020600020601f850160051c81019160208610610de157601f0160051c019061119f565b87610be0565b015190508980610b91565b90601f1983169184600052816000209260005b81811061100b5750908460019594939210610ff2575b505050811b019055610ba9565b015160001960f88460031b161c19169055888080610fe5565b92936020600181928786015181550195019301610fcf565b61104f90846000526020600020601f850160051c81019160208610610de157601f0160051c019061119f565b88610b74565b833567ffffffffffffffff811161006c5760209161107a8392602436918701016110a7565b815201930192610b32565b90601f8019910116810190811067ffffffffffffffff821117610a3b57604052565b81601f8201121561006c5780359067ffffffffffffffff8211610a3b57604051926110dc601f8401601f191660200185611085565b8284526020838301011161006c57816000926020809301838601378301015290565b67ffffffffffffffff8111610a3b5760051b60200190565b60005b8381106111295750506000910152565b8181015183820152602001611119565b604091602082526111598151809281602086015260208686019101611116565b601f01601f1916010190565b90600182811c92168015611195575b602083101461117f57565b634e487b7160e01b600052602260045260246000fd5b91607f1691611174565b8181106111aa575050565b6000815560010161119f565b919082018092116111c357565b634e487b7160e01b600052601160045260246000fd5b604051608091906111ea8382611085565b6003815291601f19018260005b82811061120357505050565b8060606020809385010152016111f7565b9061121e826110fe565b61122b6040519182611085565b828152809261123c601f19916110fe565b019060005b82811061124d57505050565b806060602080938501015201611241565b8051156103505760200190565b8051600110156103505760400190565b8051600210156103505760600190565b8051600310156103505760800190565b80518210156103505760209160051b010190565b90604051918260008254926112c384611165565b808452936001811690811561133157506001146112ea575b506112e892500383611085565b565b90506000929192526020600020906000915b8183106113155750509060206112e892820101386112db565b60209193508060019154838589010152019101909184926112fc565b9050602092506112e894915060ff191682840152151560051b820101386112db565b600052600260205261136b60016040600020016112af565b90565b6001600361138761138161136b946116a0565b946116a0565b936021604051958692601160f91b60208501526113ad8151809260208688019101611116565b83017f223a220000000000000000000000000000000000000000000000000000000000838201526113e8825180936020602485019101611116565b0101601160f91b838201520301601e19810184520182611085565b61140f906105ec6114cd565b61136b6001602160405180947f7b0000000000000000000000000000000000000000000000000000000000000060208301526114548151809260208686019101611116565b81017f7d00000000000000000000000000000000000000000000000000000000000000838201520301601e19810184520182611085565b9061136b916102006114b56114a8604093845161014d8682611085565b9383516101898582611085565b916114c060006114ec565b906101d181519182611085565b604051906114dc604083611085565b60018252600b60fa1b6020830152565b600681101561168a57806115365750604051611509604082611085565b600681527f737472696e670000000000000000000000000000000000000000000000000000602082015290565b60006001820361157d575050604051611550604082611085565b600681527f6e756d6265720000000000000000000000000000000000000000000000000000602082015290565b50600281036115c25750604051611595604082611085565b600481527f6461746500000000000000000000000000000000000000000000000000000000602082015290565b6000906004810361160a5750506040516115dd604082611085565b600c81527f626f6f73745f6e756d6265720000000000000000000000000000000000000000602082015290565b60031415905061164f57604051611622604082611085565b600d81527f626f6f73745f70657263656e7400000000000000000000000000000000000000602082015290565b60405161165d604082611085565b600681527f68696464656e0000000000000000000000000000000000000000000000000000602082015290565b634e487b7160e01b600052602160045260246000fd5b9060405191602083017b5c75303030303031323334353637383961626364656662746e00667260155281518201915b8281036116ed575060008152838103601f1901845260200160405250565b6001019081519060ff821691602083101561174c576137006001841b161561172a57506008600292605c83530151600182015301915b91906116cf565b6006925080600f809260041c1651601d531651601e5360195181520191611723565b506b1000000000000004000000006001831b161561177757600291605c825360018201530191611723565b60019181530191611723565b9190825115611813576117958361125e565b51926001935b815185101561180d576020611805600192826117b7898761129b565b516117f660405195846117d3889651809284808a019101611116565b8a519086016117e782848301858f01611116565b01019182815194859201611116565b0103601f198101835282611085565b94019361179b565b93505050565b509050604051611824602082611085565b600081529056fea2646970667358221220171286519a3f078784e2ae7e072a34f4f8add2d83a8e03962dd4507b656dbdbe64736f6c634300081b0033",
  "devdoc": {
    "kind": "dev",
    "methods": {},
    "version": 1
  },
  "userdoc": {
    "kind": "user",
    "methods": {},
    "version": 1
  },
  "storageLayout": {
    "storage": [
      {
        "astId": 16174,
        "contract": "contracts/originForge/sbtFacet.sol:sbtFacet",
        "label": "s",
        "offset": 0,
        "slot": "0",
        "type": "t_struct(AppStorage)16164_storage"
      }
    ],
    "types": {
      "t_address": {
        "encoding": "inplace",
        "label": "address",
        "numberOfBytes": "20"
      },
      "t_array(t_string_storage)dyn_storage": {
        "base": "t_string_storage",
        "encoding": "dynamic_array",
        "label": "string[]",
        "numberOfBytes": "32"
      },
      "t_bool": {
        "encoding": "inplace",
        "label": "bool",
        "numberOfBytes": "1"
      },
      "t_mapping(t_string_memory_ptr,t_address)": {
        "encoding": "mapping",
        "key": "t_string_memory_ptr",
        "label": "mapping(string => address)",
        "numberOfBytes": "32",
        "value": "t_address"
      },
      "t_mapping(t_string_memory_ptr,t_bool)": {
        "encoding": "mapping",
        "key": "t_string_memory_ptr",
        "label": "mapping(string => bool)",
        "numberOfBytes": "32",
        "value": "t_bool"
      },
      "t_mapping(t_string_memory_ptr,t_struct(User)16128_storage)": {
        "encoding": "mapping",
        "key": "t_string_memory_ptr",
        "label": "mapping(string => struct User)",
        "numberOfBytes": "32",
        "value": "t_struct(User)16128_storage"
      },
      "t_mapping(t_uint256,t_struct(SBT)16145_storage)": {
        "encoding": "mapping",
        "key": "t_uint256",
        "label": "mapping(uint256 => struct SBT)",
        "numberOfBytes": "32",
        "value": "t_struct(SBT)16145_storage"
      },
      "t_string_memory_ptr": {
        "encoding": "bytes",
        "label": "string",
        "numberOfBytes": "32"
      },
      "t_string_storage": {
        "encoding": "bytes",
        "label": "string",
        "numberOfBytes": "32"
      },
      "t_struct(AppStorage)16164_storage": {
        "encoding": "inplace",
        "label": "struct AppStorage",
        "members": [
          {
            "astId": 16149,
            "contract": "contracts/originForge/sbtFacet.sol:sbtFacet",
            "label": "contractNames",
            "offset": 0,
            "slot": "0",
            "type": "t_mapping(t_string_memory_ptr,t_address)"
          },
          {
            "astId": 16154,
            "contract": "contracts/originForge/sbtFacet.sol:sbtFacet",
            "label": "users",
            "offset": 0,
            "slot": "1",
            "type": "t_mapping(t_string_memory_ptr,t_struct(User)16128_storage)"
          },
          {
            "astId": 16159,
            "contract": "contracts/originForge/sbtFacet.sol:sbtFacet",
            "label": "sbt",
            "offset": 0,
            "slot": "2",
            "type": "t_mapping(t_uint256,t_struct(SBT)16145_storage)"
          },
          {
            "astId": 16163,
            "contract": "contracts/originForge/sbtFacet.sol:sbtFacet",
            "label": "isUseNickName",
            "offset": 0,
            "slot": "3",
            "type": "t_mapping(t_string_memory_ptr,t_bool)"
          }
        ],
        "numberOfBytes": "128"
      },
      "t_struct(SBT)16145_storage": {
        "encoding": "inplace",
        "label": "struct SBT",
        "members": [
          {
            "astId": 16135,
            "contract": "contracts/originForge/sbtFacet.sol:sbtFacet",
            "label": "tokenId",
            "offset": 0,
            "slot": "0",
            "type": "t_uint256"
          },
          {
            "astId": 16137,
            "contract": "contracts/originForge/sbtFacet.sol:sbtFacet",
            "label": "image",
            "offset": 0,
            "slot": "1",
            "type": "t_string_storage"
          },
          {
            "astId": 16139,
            "contract": "contracts/originForge/sbtFacet.sol:sbtFacet",
            "label": "seed",
            "offset": 0,
            "slot": "2",
            "type": "t_string_storage"
          },
          {
            "astId": 16141,
            "contract": "contracts/originForge/sbtFacet.sol:sbtFacet",
            "label": "baseEgg",
            "offset": 0,
            "slot": "3",
            "type": "t_string_storage"
          },
          {
            "astId": 16144,
            "contract": "contracts/originForge/sbtFacet.sol:sbtFacet",
            "label": "colorSet",
            "offset": 0,
            "slot": "4",
            "type": "t_array(t_string_storage)dyn_storage"
          }
        ],
        "numberOfBytes": "160"
      },
      "t_struct(User)16128_storage": {
        "encoding": "inplace",
        "label": "struct User",
        "members": [
          {
            "astId": 16117,
            "contract": "contracts/originForge/sbtFacet.sol:sbtFacet",
            "label": "userId",
            "offset": 0,
            "slot": "0",
            "type": "t_string_storage"
          },
          {
            "astId": 16119,
            "contract": "contracts/originForge/sbtFacet.sol:sbtFacet",
            "label": "userNickName",
            "offset": 0,
            "slot": "1",
            "type": "t_string_storage"
          },
          {
            "astId": 16121,
            "contract": "contracts/originForge/sbtFacet.sol:sbtFacet",
            "label": "userWallet",
            "offset": 0,
            "slot": "2",
            "type": "t_address"
          },
          {
            "astId": 16123,
            "contract": "contracts/originForge/sbtFacet.sol:sbtFacet",
            "label": "delegateAccount",
            "offset": 0,
            "slot": "3",
            "type": "t_address"
          },
          {
            "astId": 16125,
            "contract": "contracts/originForge/sbtFacet.sol:sbtFacet",
            "label": "userSBTId",
            "offset": 0,
            "slot": "4",
            "type": "t_uint256"
          },
          {
            "astId": 16127,
            "contract": "contracts/originForge/sbtFacet.sol:sbtFacet",
            "label": "originValue",
            "offset": 0,
            "slot": "5",
            "type": "t_uint256"
          }
        ],
        "numberOfBytes": "192"
      },
      "t_uint256": {
        "encoding": "inplace",
        "label": "uint256",
        "numberOfBytes": "32"
      }
    }
  }
}